:020000040800F2
:1000000000070020F1020008B9B6000871B6000828
:1000100099B6000871B6000891B60008F30200080E
:10002000F3020008F3020008F302000805F60008D6
:10003000F3020008F3020008F3020008F3020008CC
:10004000F3020008F3020008F3020008F3020008BC
:10005000F3020008F3020008B9FF0008E5FF0008FA
:10006000110001083D00010869000108E5D40008FD
:100070000DD5000839D5000865D5000891D50008D0
:10008000B9D50008E5D50008F3020008F30200081E
:10009000F3020008F3020008F302000895000108CB
:1000A000F3020008F3020008F3020008F30200085C
:1000B000F3020008F3020008F3020008F30200084C
:1000C000F3020008F3020008F3020008F30200083C
:1000D000F3020008F3020008F3020008810101089E
:1000E000F9000108F3020008F3020008F302000817
:1000F000F3020008F3020008F302000811D600081A
:10010000F3020008F3020008BD010108F302000831
:10011000F302000895010108F3020008F302000849
:100120003DD6000865D6000891D60008BDD6000867
:10013000E9D60008F5D90008F3020008F302000828
:10014000F3020008F3020008F3020008F3020008BB
:1001500011D700083DD7000869D70008F30200084E
:10016000F3020008F3020008F3020008F30200089B
:10017000F3020008F3020008F3020008F30200088B
:10018000F3020008F3020008A9010108F3020008C5
:10019000F3020008F3020008F3020008F30200086B
:1001A000F3020008F3020008F3020008F30200085B
:1001B000F3020008F3020008F3020008F30200084B
:1001C000F3020008F3020008F3020008F30200083B
:1001D000F3020008F3020008F3020008F30200082B
:1001E000F3020008F3020008F3020008F30200081B
:1001F000F3020008F3020008F3020008F30200080B
:10020000F3020008F3020008F3020008F3020008FA
:10021000F3020008F3020008F3020008F3020008EA
:10022000F3020008F3020008F3020008F3020008DA
:100230006D010108F3020008F3020008F302000850
:10024000F3020008F3020008F3020008F3020008BA
:10025000F3020008F3020008F3020008F3020008AA
:10026000F3020008F3020008F3020008F30200089A
:10027000F3020008F3020008F3020008F30200088A
:10028000F3020008F3020008F3020008F30200087A
:10029000F3020008F3020008F3020008F30200086A
:1002A000F3020008F3020008F3020008F30200085A
:1002B000F3020008F3020008F3020008F30200084A
:1002C000F3020008F3020008F3020008F30200083A
:1002D000F3020008F3020008F3020008F30200082A
:1002E000650500086DB40008000000000000000073
:1002F00002E000F000F8FEE772B6374880F30888A5
:10030000364880F3098836483649086040F20000D4
:10031000CCF200004EF63471CEF200010860BFF35B
:100320004F8FBFF36F8F40F20000C0F2F0004EF627
:100330008851CEF200010860BFF34F8FBFF36F8F7B
:100340004FF00000E1EE100A4EF63C71CEF20001D3
:100350000860062080F31488BFF36F8F0FF0B4F9A4
:100360000FF0E2FB4FF055301F491B4A91423CBF52
:1003700041F8040BFAE71D49184A91423CBF41F885
:10038000040BFAE71A491B4A1B4B9A423EBF51F82D
:10039000040B42F8040BF8E700201849184A914270
:1003A0003CBF41F8040BFAE70FF0CCF90FF040FC2A
:1003B000144C154DAC4203DA54F8041B8847F9E796
:1003C00000F094F8114C124DAC4203DA54F8041BBF
:1003D0008847F9E70FF0B4B9000700200023002098
:1003E0000000000808ED00E00001002000070020E8
:1003F000285F010800230020BC230020C023002028
:1004000048440020E0020008E8020008E802000872
:10041000E80200082DE9F04F2DED108AC1F80CD04C
:10042000D0F80CD0BDEC108ABDE8F08F002383F328
:1004300011882846A04700200EF0FEFBFEE70EF0D4
:10044000D1FA00DFFEE7000001F0FF01102A2BDBEC
:1004500010F0070F08D010F8013B013A8B422DD065
:1004600010F0070F42B3F6D1F0B441EA012141EA9E
:10047000014122F007047FF000070023F0E8025654
:10048000083C85EA010586EA010685FA47F5A3FAE4
:1004900087F586FA47F6A5FA87F68EB9EED1F0BC55
:1004A00001F0FF0102F0070232B110F8013B013AFE
:1004B00083EA010313B1F8D1002070470138704777
:1004C000002D06BF35460338073815F0010F07D158
:1004D000013015F4807F02BF013015F4C03F0130B8
:1004E000F0BC0138704700BF7047000038B501F01C
:1004F00045F801F0E1F9194800F028FE0FF02EF858
:1005000005460FF075F8044618BB154B9D4222D0E6
:1005100001339D4241F2883512BF04460025012473
:1005200001F040FA20B10025032000F083F82C46AA
:1005300000200FF01DF80CB100F092F801F08EF9D8
:10054000064800F0DDFD284600F028F900F088F8A4
:10055000F9E70025E4E70546E2E700BFC0230020F5
:10056000010007B010B5084C04F108000BF066F864
:1005700004F134000BF062F82046044A0449BDE857
:10058000104010F013BC00BFC0230020902F0020AB
:10059000E904000808B500F0BDFFA0F120035842AF
:1005A000584108BD07B541F21203022101A8ADF878
:1005B000043000F0CDFF03B05DF804FB38B5302304
:1005C00083F31188174803680BB10EF019FC002360
:1005D000154A4FF47A7113480EF008FC002383F398
:1005E0001188124C236813B12368013B23606368B0
:1005F00013B16368013B63600D4D2B7833B96368B9
:100600007BB9022001F080F8322363602B78032B42
:1006100007D163682BB9022001F076F84FF47A73A2
:10062000636038BD0C250020BD0500082C26002085
:1006300024250020084B187003280CD8DFE800F0B0
:1006400008050208022001F051B8022001F03EB86E
:10065000024B00225A607047242500202C260020DF
:10066000F8B501F09FF930B1444B03221A70002213
:10067000434B5A60F8BD434B434A1C46196801314D
:10068000F8D004339342F9D16268404B9A42F1D9D1
:100690003F4B9B6803F1006303F500339A42E9D2B4
:1006A000002000F085FF0220FFF7C4FF394B002136
:1006B000D3F8E820C3F8E810D3F81021C3F81011DC
:1006C000D3F81021D3F8EC20C3F8EC10D3F81421A0
:1006D000C3F81411D3F81421D3F8F020C3F8F010A4
:1006E000D3F81821C3F81811D3F8183172B64FF0A7
:1006F000E023C3F8084DD4E90004BFF34F8FBFF3E4
:100700006F8F254AC2F88410BFF34F8F536923F4CB
:1007100080335361BFF34F8FD2F8803043F6E076D9
:10072000C3F3C905C3F34E335B0103EA060C294644
:100730004CEA81770139C2F87472F9D2203B13F187
:10074000200FF2D1BFF34F8FBFF36F8FBFF34F8FE7
:10075000BFF36F8F536923F4003353610023C2F852
:100760005032BFF34F8FBFF36F8F302383F3118865
:10077000854680F3088820477CE700BF24250020B9
:100780002C2600200000020820000208FFFF0108BC
:10079000002300200044025800ED00E02DE9F04F56
:1007A00093B0B44B2022FF2100900AA89D6800F06E
:1007B000FFFFB14A1378A3B90121B048117003605B
:1007C000302383F3118803680BB10EF019FB00236B
:1007D000AB4A4FF47A71A9480EF008FB002383F36B
:1007E0001188009B13B1A74B009A1A60A64A137890
:1007F000032B03D000231370A24A53604FF0000A6A
:10080000009CD3465646D146012000F06FFF24B12C
:100810009C4B1B68002B00F02682002000F07AFE23
:100820000390039B002BF2DB012000F04FFF039BA2
:10083000213B1F2BE8D801A252F823F0BD08000885
:10084000E5080008790900080908000809080008F7
:10085000090800080B0A0008DB0B0008F50A00086D
:10086000570B00087F0B0008A50B000809080008BB
:10087000B70B000809080008290C00085D090008EA
:10088000090800086D0C0008C90800085D09000887
:1008900009080008570B00080908000809080008A3
:1008A00009080008090800080908000809080008E4
:1008B0000908000809080008790900080220FFF764
:1008C00069FE002840F0F981009B022105A8BAF1D9
:1008D000000F08BF1C4641F21233ADF8143000F08F
:1008E00037FE91E74FF47A7000F014FE071EEBDB41
:1008F0000220FFF74FFE0028E6D0013F052F00F24F
:10090000DE81DFE807F0030A0D101336052304210A
:1009100005A8059300F01CFE17E004215548F9E7EF
:1009200004215A48F6E704215948F3E74FF01C0820
:10093000404608F1040800F03DFE0421059005A89A
:1009400000F006FEB8F12C0FF2D101204FF00009A3
:1009500000FA07F747EA0B0B5FFA8BFB00F074FF16
:1009600026B10BF00B030B2B08BF0024FFF71AFE78
:100970004AE704214748CDE7002EA5D00BF00B0332
:100980000B2BA1D10220FFF705FE074600289BD0C4
:100990000120002600F00CFE0220FFF74BFE1FFA9C
:1009A00086F8404600F014FE0446B0B10399404674
:1009B0000136A1F140025142514100F019FE0028D8
:1009C000EDD1BA46044641F21213022105A83E4673
:1009D000ADF8143000F0BCFD16E725460120FFF706
:1009E00029FE244B9B68AB4207D9284600F0E2FD64
:1009F000013040F067810435F3E70025224BBA4609
:100A00003E461D701F4B5D60A8E7002E3FF45CAFB3
:100A10000BF00B030B2B7FF457AF0220FFF70AFEFE
:100A2000322000F077FDB0F10008FFF64DAF18F06E
:100A300003077FF449AF0F4A08EB0503926893421E
:100A40003FF642AFB8F5807F3FF73EAF124BB84557
:100A5000019323DD4FF47A7000F05CFD0390039A5C
:100A6000002AFFF631AF039A0137019B03F8012BEF
:100A7000EDE700BF00230020282600200C250020E1
:100A8000BD0500082C26002024250020042300207A
:100A9000082300200C23002028250020C820FFF771
:100AA00079FD074600283FF40FAF1F2D11D8C5F17F
:100AB00020020AAB25F0030084494245184428BFB0
:100AC0004246019200F042FE019AFF217F4800F069
:100AD0006FFE4FEAA803C8F387027C4928460193BA
:100AE00000F06EFE064600283FF46DAF019B05EB5B
:100AF000830533E70220FFF74DFD00283FF4E4AE05
:100B000000F094FD00283FF4DFAE0027B846704B9C
:100B10009B68BB4218D91F2F11D80A9B01330ED0F6
:100B200027F0030348336B4453F8203C05934046B9
:100B3000042205A9043700F01FFF8046E7E7384686
:100B400000F038FD0590F2E7CDF81480042105A8E7
:100B500000F0FEFC02E70023642104A8049300F0E7
:100B6000EDFC00287FF4B0AE0220FFF713FD002853
:100B70003FF4AAAE049800F04FFD0590E6E700238D
:100B8000642104A8049300F0D9FC00287FF49CAEF3
:100B90000220FFF7FFFC00283FF496AE049800F017
:100BA0003DFDEAE70220FFF7F5FC00283FF48CAE9C
:100BB00000F04CFDE1E70220FFF7ECFC00283FF4D9
:100BC00083AE05A9142000F047FD074604210490D8
:100BD00004A800F0BDFC3946B9E7322000F09AFCC9
:100BE000071EFFF671AEBB077FF46EAE384A07EB07
:100BF0000903926893423FF667AE0220FFF7CAFCF2
:100C000000283FF461AE27F003074F44B9453FF495
:100C1000A5AE484609F1040900F0CCFC042105907A
:100C200005A800F095FCF1E74FF47A70FFF7B2FCED
:100C300000283FF449AE00F0F9FC002844D00A9B9C
:100C400001330BD008220AA9002000F0B9FD0028CA
:100C50003AD02022FF210AA800F0AAFDFFF7A2FC4B
:100C60001C480DF0EFFF13B0BDE8F08F002E3FF4ED
:100C70002BAE0BF00B030B2B7FF426AE002364216D
:100C800005A8059300F05AFC074600287FF41CAE27
:100C90000220FFF77FFC804600283FF415AEFFF7E7
:100CA00081FC41F288300DF0CDFF059800F0EAFD9F
:100CB00046463C4600F0C8FDA6E506464EE64FF027
:100CC000000901E6BA467EE637467CE62825002084
:100CD00000230020A086010070470000064A002380
:100CE0000261064A0362426140F2DC528286044A93
:100CF000C2631846704700BF91850008050D0008C3
:100D0000062A6D731FB50C464CF2503201A90A48F1
:100D10000DF0C2FA68B934B1628901A861680DF0BA
:100D2000CBF82468F7E701A80DF01CF8204604B0C2
:100D300010BD6FF00200FAE7343000207047000069
:100D400030B585B00D4600220E4801A90DF0BCFA61
:100D5000A8B94FF4C172BDF8081001F0B5FB044604
:100D6000286034B1628901A861680DF0BBF824687D
:100D7000F7E701A80DF046F8012005B030BD0020CE
:100D8000FBE700BF3430002000212DE9F04104468C
:100D90009EB008460AF022F9642000F0C7FC2168E2
:100DA0004F48363100F0F0FF606A48BB4D4800F014
:100DB000AFFF01F08BF807904B4800F0A9FF01F05E
:100DC00085F80890494800F0A3FF01F07FF80990EA
:100DD00023680AA9464836330A930DF04FFA454B6B
:100DE00009AA07A920680293434B019300230093AB
:100DF00008AB08F07DFE024670B140480AF05EFC88
:100E000001F064F80790E06A01F060F80990A06AC8
:100E100001F05CF80890DBE739490590206808F09C
:100E200089FE059A3749206808F084FE364916A8DD
:100E30002F4E0AF04FFB16A80AF054FB4FF0FF3379
:100E400001220CA91CA8314F0DF014FC022311A99A
:100E50002F481A46DFF8C4800DF00CFC03200DF07B
:100E60001DFC4FF0FF300DF051FCC207054611D5B7
:100E700030460DF041FA216891F83D30C3F380030C
:100E8000984207D030B323480AF066F8214622483A
:100E90000AF062F8AB07E4D540F606050BA9206816
:100EA000FFF74EFF0028DCD00B9B002BF6D05B68D1
:100EB000988901F007F8B0F5006F01D0A84205D17C
:100EC00021680B98CB6898470028E7D00B9801F071
:100ED00099FAE3E738460AF03FF821464046D7E75B
:100EE000A41F0108B61F0108BF1F0108C81F010881
:100EF000343000203DAF0008DD0C0008D61F01088B
:100F00007D1F0008D5210008404B4C0065220008D9
:100F10004C30002019220008D90C00083D0D0008B3
:100F200008B5FFF731FF00002DE9F74F804600912B
:100F300000F036FC00F580600EF0F6F9054600285A
:100F40004AD00446C14699F900B0BBF1000F41D028
:100F5000A9EB0803009A93423CD2BBF17B0F09F145
:100F6000010703D004F801BBB946ECE77D21384600
:100F70000FF0AAFF06460028F4D0A0EB09024FF0BC
:100F8000030BDFF85C9002F1FF3AD9F80030184605
:100F9000019300F005FC5045019B11D152463946A2
:100FA000184600F0DDFB58B9D9F8047020463946E0
:100FB0000FF098FF384600F0F3FB771C0444D3E7AA
:100FC000BBF1010B09F10809DFD14FF07B0304F8F5
:100FD000013BC9E700232370284603B0BDE8F08F2A
:100FE00010230020F7B54FF480600E460E4F0EF030
:100FF0009BF904460546642301220DF107013046A2
:1010000000F0F0FD01280CD19DF8073005F8013BF8
:101010002B1B032BEFDD3946281F00F0B5FB002802
:10102000E9D1204603B0F0BDFB2001082DE9FF41C6
:10103000044620200AF094FA054610B1002100F081
:1010400055FD502227492846274FDFF8A88000F099
:1010500083FE1421284600F01DFE1421284600F0CE
:1010600025FE94F8303006467BB1002384F83030FA
:10107000BFF34F8F1D491E4BCA6802F4E062134351
:10108000CB60BFF34F8F00BFFDE794F831203AB13A
:101090004FF47A7084F8313000F048FBFFF7E0FA43
:1010A000002EDAD008200AF05BFA3C2241463B468B
:1010B000C0E90046009040F6F8100EF07DF940F2CD
:1010C000552204F1080103A800F0EAFC206A20B1CF
:1010D000C36B23620DF06EFDF8E703A800F0EAFC95
:1010E000BBE700BFF41F01086D14000800ED00E02D
:1010F0000400FA05FC1F010808B5FFF797FF000080
:1011000013B5044600F078FE0DF0A2F84C200AF06A
:1011100027FA0A4B20603C22094940F6F810009457
:101120000EF04AF9074B3C220749606040F6F81080
:1011300000940EF041F902B010BD00BF210F00086D
:1011400008200108F9100008102001084FF0005392
:10115000054A1968914206D15A6822B142629A68DA
:10116000C262DB68836270479AAD44C50EB477B53E
:1011700007AD044600F134014FF4227255F8046BB8
:10118000684600F08DFC4FF480712B46324604F126
:101190004C0001950AF06AFA684600F08BFC03B037
:1011A000BDE8704003B070472DE9F04F0746ADF53C
:1011B000037D8846144600256423012202A9404687
:1011C00000F010FD012840F0A9809DF90830013C95
:1011D0000D2B04D1022D0CBF03250125ECE70A2BB2
:1011E000E9D105F0FD06012EE5D10135EDB2042D62
:1011F000E2D14F493846FFF7B9FF3046002600F0EC
:10120000D7F9304600F0E4F990B10021304600F003
:10121000EFF968B101360A2000F088FA30460DF087
:101220000DFF054600200DF009FF281AA042E8D363
:1012300024F003044FF000094FF0640BDFF800A125
:10124000B4F5001F4E4628BF4FF40014A6423FD20B
:10125000A21B42F2107302A94046B2F5007F28BFDC
:101260004FF40072019200F0BDFC051E30DD15F058
:1012700003010FD0019A95420CD2C1F1040205F18D
:10128000080142F210734046694400F0ABFC0028AC
:10129000C8BF2D1830462E44C5F3870202A90BFBA8
:1012A00006F500F08DFA0A22B5FBF4F5EDB2B5FBB8
:1012B000F2F302FB1353DBB23BB9A94506D02A4631
:1012C00051463846FFF752FF00E04D46A946BDE7BC
:1012D00016F01F040DD04FF40072FF2102A800F099
:1012E00067FAC4F1200202A93046C2F3870200F077
:1012F00067FA00F09BF9002000F05AF900F052FB69
:10130000024678B901230B49384687F83130FFF798
:101310002DFF66220849404600F020FC0DF5037DB4
:10132000BDE8F08F05493846FFF720FFF6E700BF1C
:101330001C2001083620010845200108AC200108C6
:1013400028200108F0B50C4685B00646FFF74AFE96
:1013500005463F223D49204600F000FC07223C495B
:10136000284600F0FDF9F8B93A4928460FF0D6FDB5
:1013700020B9394928460FF0D1FDA8B111300FF03E
:101380001BFD214602463046FFF70EFF28460AF0B5
:10139000EDF8002C49D0204600F0BCFB204605B0FB
:1013A000BDE8F0400AF0E2B81B222C49284600F0C4
:1013B000D7F9A8B94FF4017206F1340103A800F07F
:1013C0006FFB06F14C010846019100F0E9F9019923
:1013D0000246204600F0C2FB03A800F06BFBD5E7F5
:1013E0000B221F49284600F0BBF910B9012386F8EB
:1013F0003030002303A91B4803930AF0A5F896F8A0
:10140000303007469BB148221749204600F0A6FB22
:1014100028460AF0ABF82CB1204600F07BFB2046B2
:101420000AF0A4F838460AF099F805B0F0BD03991F
:10143000FFF77AFD064600F0B3F902463146204632
:1014400000F08CFB30460AF091F8E1E7C02001087B
:1014500000210108082101081A2101082C21010896
:1014600048210108542101085F21010873B5044691
:10147000D0E90001FFF766FF25680A4B2046DE68C9
:101480000AF074F840F22E2205F1080101A800F0DC
:1014900007FB2B6A01A8F3632E6200F00BFB02B07E
:1014A00070BD00BF983D00202DE9F84F4FF47A73CE
:1014B00006460D46002402FB03F7DFF85080DFF8F4
:1014C000509098F900305FFA84FA5A1C01D0A34278
:1014D00010D159F824002A4631460368D3F820B0C9
:1014E0003B46D847854205D1074B012083F800A031
:1014F000BDE8F88F0134032CE3D14FF4FA700DF0FE
:10150000A1FB0020F4E700BF78260020282300205C
:101510002C230020002307B5024601210DF107000E
:101520008DF80730FFF7C0FF20B19DF8070003B02A
:101530005DF804FB4FF0FF30F9E700000A46042194
:1015400008B5FFF7B1FF80F00100C0B2404208BD0E
:10155000074B0A4630B41978064B53F82140014630
:1015600023682046DD69044BAC4630BC604700BFB1
:10157000782600202C230020A086010070B50A4E9A
:1015800000240A4D0DF066FD3080286833888342C0
:1015900008D90DF05BFD2B6804440133B4F5003F1E
:1015A0002B60F2D370BD00BF7A26002034260020C5
:1015B0000DF01EBE00F1006000F5003000687047BD
:1015C00000F10060920000F500300DF09FBD0000BA
:1015D000054B1A68054B1B889B1A834202D910449D
:1015E0000DF034BD00207047342600207A260020FC
:1015F00038B50446074D29B128682044BDE8384075
:101600000DF03CBD286820440DF026FD0028F3D0E5
:1016100038BD00BF342600200020704700F1FF5085
:1016200000F58F10D0F8000870470000064991F8C7
:10163000243033B100230822086A81F82430FFF7F0
:10164000BFBF0120704700BF38260020014B18683B
:10165000704700BF0010005C194B0138032208449A
:1016600070B51D68174BC5F30B042D0C1E88A642E0
:101670000BD15C680A46013C824213460FD214F932
:10168000016F4EB102F8016BF6E7013A03F108036E
:10169000ECD181420B4602D22C2203F8012B042408
:1016A000094A1688AE4204D1984284BF967803F85E
:1016B000016B013C02F10402F3D1581A70BD00BF66
:1016C0000010005C382300200C220108022804D1FD
:1016D000054B4FF400129A6170470128FCD1024B70
:1016E0004FF48012F7E700BF00100258022803D120
:1016F000044B20229A6170470128FCD1014B102233
:10170000F8E700BF00100258022805D1064A5369C5
:1017100083F02003536170470128FCD1024A5369CA
:1017200083F01003F6E700BF0010025870B50446BE
:101730004FF47A764CB1412C254628BF412506FB53
:1017400005F0641B0DF07EFAF4E770BD002310B5C0
:10175000934203D0CC5CC4540133F9E710BD0000C0
:10176000013810B510F9013F3BB191F900409C429E
:1017700003D11AB10131013AF4E71AB191F900200D
:10178000981A10BD1046FCE70138013910F9013FE5
:1017900011F9012F0BB19342F8D0981A704700004D
:1017A00003460246D01A12F9011B0029FAD17047EC
:1017B00002440346934202D003F8011BFAE7704744
:1017C0002DE9F8431F4D14460746884695F8242016
:1017D00052BBDFF870909CB395F824302BB92022CF
:1017E000FF2148462F62FFF7E3FF95F824004146AA
:1017F000C0F1080205EB8000A24228BF2246D6B203
:101800009200FFF7A3FF95F82430A41B17441E4451
:101810009044E4B2F6B2082E85F82460DBD1FFF7DD
:1018200005FF0028D7D108E02B6A03EB820383422F
:10183000CFD0FFF7FBFE0028CBD10020BDE8F88316
:101840000120FBE738260020024B1A78024B1A7061
:10185000704700BF782600202823002070B54FF481
:10186000E133064E0324064D3360314655F8040B30
:101870000CF0DAFE013CF8D170BD00BF60260020FC
:101880002C230020094B1822002110B504461846CD
:10189000FFF78EFF064A074B01461278046053F8A3
:1018A0002200BDE810400CF0BFBE00BF6026002043
:1018B000782600202C230020F8B571B600230120E3
:1018C0001A4619460BF0F8FF044680200DF030FD53
:1018D000002849D00025254A80274FF4D06C3D26AA
:1018E000136913F0C06F26D1D2F8103113F0C06F16
:1018F00021D1236805F1006199602368D8602368CD
:101900005F602368C3F800C021680B6843F00103DF
:101910000B6021680B6823F01E030B6021680B68C5
:10192000DB07FCD4237B8035616806FA03F3B5F549
:10193000001F0B60D4D120460BF0FEFFB5F5001F51
:1019400011D000240A4E0B4D01200DF051FC3388BC
:10195000A34205D92868204401340DF08FFBF6E737
:1019600000200DF045FC61B6F8BD00BF002000521C
:101970007A2600203426002030B50A44084D9142D2
:101980000DD011F8013B5840082340F30004013BFF
:101990002C4013F0FF0384EA5000F6D1EFE730BD8E
:1019A0002083B8EDF7B5384A6B46106851686A462F
:1019B00003C30823354936480FF026FA04460028A9
:1019C00033D10A25334A6B46106851686A4603C30F
:1019D000082331492E480FF017FA0446002849D051
:1019E0000369B3F5F01F45D8B0F8661041F65832D8
:1019F00091423FD1294A024402F15C018B4239D322
:101A00005C3B234900209E1AFFF7B6FF04F16401F6
:101A1000074632460020FFF7AFFFA3689F4229D157
:101A2000E368984208BF002524E00369B3F5F01F7E
:101A300027D8418B41F65832914220D1174A0244AF
:101A400002F110018B4218D3103B114900209D1A5E
:101A5000FFF792FF04F1180106462A460020FFF71F
:101A60008BFFA3689E4202D1E368984201D00D2506
:101A7000A8E70025284603B0F0BD1025A2E70C25F5
:101A8000A0E70B259EE700BF1C220108DCFF1D001C
:101A9000000002082522010890FF1D000800FEF743
:101AA00010B50B68044608469B682160984720469D
:101AB00010BD000010B5044600680368DB68984755
:101AC000204610BD1FB504464FF0FF33104621706D
:101AD0006261A36139B9042301220621009303AB9B
:101AE000039208F0ABFF204604B010BD38B50D1EC0
:101AF00004464FF000024FF0020014BF0221012102
:101B000008F0FEFD294602462046FFF7DBFF20468F
:101B100038BD000010B504464069421C01D008F0F1
:101B200053FCA069431C01D008F04EFC204610BDB8
:101B30001FB54069431C0ED00123042240F6FF71FB
:101B4000039303AB009208F079FF013018BF012026
:101B500005B05DF804FB0020FAE700004069431C73
:101B600002D0202308F08EBD7047000010B58469B4
:101B700088B00023621CCDE9023302D14469621CA3
:101B80002DD0002C234608AA04F01F00B8BF04F192
:101B90001F035B1102EB8303624202F01F0258BF76
:101BA00050420122824053F8180C024343F8182C8B
:101BB0004FF47A720023B1FBF2F002FB1011514393
:101BC00004AACDE904030691601C009202A91A46FA
:101BD00008F0D0FD431E5842584108B010BD1846C9
:101BE000FBE700002DE9F0410F468CB01946044692
:101BF0009046FFF7BBFF30B90FF0F0F80B230360FE
:101C00004FF0FF3542E0A569102304AE1022029385
:101C10006B1C4FF00001304608BF6569FFF7C8FD37
:101C200002AB424628463946CDE90063082308F056
:101C300053FC051E24DD221D08AF3346083203CBBA
:101C4000BB4242F8080C42F8041C1E46F5D1A369B9
:101C500001331BD0102303AA39466069039308F0AF
:101C6000E9FE0028CCD1636823F0FF02089B23F033
:101C7000FF039A420AD1A268099B9A4206D1BFE7A4
:101C800023781BB9237F0BB105B9257728460CB003
:101C9000BDE8F08108B54069431C05D008F0F2FBAF
:101CA000B0FA80F0400908BD0020FCE77FB5436929
:101CB0000446013303D10024204604B070BDFFF771
:101CC00055FF0028F7D0102302AA211D6069029356
:101CD00008F092FA431C0546EDD0202009F040FCA4
:101CE00004460028E8D00023012645610621037040
:101CF0004FF0FF3332460396836104232846009356
:101D000003AB08F09BFE20462677FFF711FFD3E7D1
:101D1000002307B5014601AA0220019309F072F8D9
:101D2000019800F0D3F803B05DF804FB70B51646D7
:101D3000184610220D4600211C46FFF739FD30469B
:101D400000F0C0F80223608028466370FFF7E0FFD0
:101D500000F0BCF8606070BD1FB5436904460133F4
:101D60000FD06B46FFF7E2FF2046FFF7E1FE10229F
:101D70006946606908F0EEFAB0FA80F0400904B0F4
:101D800010BD0020FBE7000070B586B005460C468C
:101D9000FFF706FD1128024621D1294601A80FF0C0
:101DA000A9F8651E002305340E4E6A460D4901A8A8
:101DB0008DF8153000930FF0EFF880B1102200215C
:101DC0000FF0ECF9FF280AD805F8010F6A463146F2
:101DD00000200FF0E1F8AC42EFD1012000E000203C
:101DE00006B070BD1821010808B50B460146014830
:101DF00009F064FC30220108F8B50120002301330A
:101E00004000DBB20E2BFAD10DF0CAFA00284CD0FC
:101E1000264A0623C2F89830254BC2F89C00C2F827
:101E2000A0300523C2F89430536A43F480335362E0
:101E30000023C2F88430BFF34F8FD2F8803043F6CE
:101E4000E075C3F3C904C3F34E335B0103EA05072E
:101E5000214647EA81760139C2F87462F9D2203B03
:101E600013F1200FF2D1BFF34F8FBFF36F8F114BE0
:101E700000F140021860104B1A6000F160020F4B35
:101E80001A6000F254625A6000F648429A6000F507
:101E900091521C32DA6000F5C15300F5F150084A46
:101EA00010330430136050600120F8BD00ED00E0F5
:101EB0001B000C038C260020982600207C26002086
:101EC0009026002040BA80B27047000000BA7047E8
:101ED0006FF00B007047000010B5044628B90B4A9C
:101EE00040F299310A48FFF77FFF94F83D3003F044
:101EF0000502052A08D1226832B19B0604D5204686
:101F0000BDE8104006F0A0BD10BD00BF4022010892
:101F10006422010873B5044615460E4629B9144AD1
:101F20004FF4EE711348FFF75FFF236832689A425F
:101F300001D1002019E02B6001A92846019201F08F
:101F4000EFF801A9284604F0ABFD01AA2946204676
:101F500004F0E4FE3368012120462360FFF7BCFF54
:101F6000A3690BB120469847012002B070BD00BFA5
:101F700040220108882201087047000010B504467D
:101F800009F02CF9014B1C6010BD00BFA0260020F9
:101F900010B5044609F022F954B1064B186830B167
:101FA00090F840300133DBB2A34218BF002010BDCF
:101FB0002046FCE7A026002010B5044609F00EF9E3
:101FC0000CB9002010BDA01C0EF0F6FE10F0FF03AF
:101FD00003D194F90220302AF3D10A4A106800286C
:101FE000EFD090F840209A42EBD194F9002090F97C
:101FF0003E309A42E5D194F9012090F93F309A425F
:10200000DFD1DFE7A02600200C4B2DE9F0410E4682
:1020100017461C68054628B9094A40F24771094825
:10202000FFF7E2FE0CB9BDE8F081D4E900383A468A
:102030003146284644469847F4E700BF9C260020D6
:1020400040220108982201082DE9F04387B0994603
:102050000E469046054609F0C1F82C4B002E08BFED
:102060001E46B8F1000F08BF9846B9F1000F08BF2F
:1020700099463368002B45D102AF314628463A468F
:10208000FFF748FF044688B30397102401276A68C6
:10209000D8F8003093421EBF009244F040046B60B9
:1020A000AA68D9F8003018BFCDF810D093421FD0DD
:1020B000AB6001AB44F02004019205935FB90DF1D0
:1020C0000808314628464246FFF724FFA8B144F0ED
:1020D0001004CDF80C8044F0800487B103AA214697
:1020E0002846FFF791FF07B0BDE8F0830127CEE750
:1020F000002FE4D0002CF6D0EDE7002CEBD144F417
:102100008064EBE700273C46C1E700BF343C010890
:102110002DE9F843DDF82490984604460E4617460C
:1021200009F05CF8264B1D684DB10025254A40F2A8
:102130002D112548FFF758FE2846BDE8F883002CEE
:10214000FAD0B9F1000FF7D0204B1022294604F144
:102150002400002E08BF1E46002F08BF1F46B8F1FE
:10216000000F08BF98461A4BA5602361A58684F826
:102170003D50C4E90055FFF71BFB089B20463A463B
:10218000236231460A9B6564E360434684F840500D
:10219000A564C4E90655FFF757FF2046C847002845
:1021A000CAD194F83D309B0602D5204606F09CFC2F
:1021B0000022012120462546FFF726FFBCE700BF8D
:1021C000A026002040220108B0220108343C01086A
:1021D000D11E00081FB5044609F000F8D4B194F8E8
:1021E0003D30DA0716D443F0010384F83D30A3698B
:1021F0000BB1204698470123204601AA08218DF8FB
:102200000430FFF701FF0321204604B0BDE8104071
:10221000FFF762BE04B010BD1FB5044608F0DEFF34
:10222000ECB194F83D305A0719D443F0040320462A
:1022300084F83D3005F02EFC204604F0F7FD032124
:102240002046FFF749FEE3690BB12046984701237A
:1022500001AA042120468DF80430FFF7D5FE04B012
:1022600010BD00001FB5044608F0B8FFCCB194F8CB
:102270003D305A0715D523F00403204684F83D303D
:1022800004F012FE204604F08FFCE3690BB12046F7
:102290009847002301AA042120468DF80430FFF757
:1022A000B3FE04B010BD000008B509F0CBF8084B30
:1022B00000221A7009F0CEF8064B186800B908BD64
:1022C000436F1BB1BDE8084000F0EABDC068F5E708
:1022D000A4260020A826002038B560B9144A4FF47F
:1022E000F1711448FFF780FD01201FE0002AFBD0A8
:1022F0004268511A14E0B1F5803FF5D2A9B10389C3
:102300008CB213FA81F39BB29C42EDD890F90C5039
:10231000002DEBDA4268511A00F110029142E3D32A
:1023200042894160144403814481002038BD00BFCC
:10233000CC220108AE23010822F04003012B70B526
:1023400006460D46144605D0094A4FF4A5710948C2
:10235000FFF74AFD0D2009F04FFB40B10023058136
:10236000458143730473C0E900360123C38170BD06
:10237000CC220108F0220108033020F0030070B5E0
:102380000E18BDF81450049CAE420DD804B104449C
:1023900018460023C0E900340223018141814373C0
:1023A00001230273C38170BD0020FCE70022FFF708
:1023B00093BF000010B538B90C4A40F24E210C48CA
:1023C000FFF712FD012010E0B1F5803FFAD259B1BC
:1023D0008AB243899A42F5D89B1A446843812144C2
:1023E000038941609B1A0381002010BDCC220108A3
:1023F000AE2301080B1E02DA5942FFF7DBBF0122B0
:10240000FFF76ABF2DE9F047044648B92546294A37
:1024100040F2DE212848FFF7E7FC2846BDE8F087B8
:102420000025244FDFF89880DFF8989009F00AF82B
:10243000A37B82462BB93A4640F2F3214046FFF790
:10244000D3FCA67B5046013EF6B2A67309F002F813
:10245000002EE2D1637B26689B0710D523692BB938
:102460003A4640F201311548FFF7BEFC2369204689
:1024700098470135EDB2002ECFD03446D6E7237B06
:1024800003F00F03022B04D121460E2009F0C0FAFD
:10249000EFE7012B02D121460D20F7E71BB92046BB
:1024A00009F054FAE5E73A4640F211314846FFF7A1
:1024B0009BFCDEE7CC220108AE2301081A230108A9
:1024C000042301083B230108B2F5C17F2DE9F84F31
:1024D00004460F4613D008D822F04003012B07D141
:1024E0000020BDE8F84FFFF727BFB2F5207F5BD093
:1024F0003B4A40F227113B48FFF776FC21E00026DB
:1025000084B2DFF8DC903546DFF8ECA00E20B3464D
:1025100009F072FA0646D0B9334C08F093FF012354
:1025200027782370FFB208F095FF4FB931462F4846
:1025300008F012FD20B108F085FF267008F08AFF30
:102540000DB900252BE02846FFF75CFFF9E7E31CF7
:1025500004440021264A23F0030313340160C3F529
:10256000807824F0030407811FFA88F84460C26071
:10257000B84528BFB846B3F5807FA0F80A8005D1DA
:102580004A464FF481715046FFF72EFC55B1CBF807
:102590000060A7EB08070024BFB2002FB6D1284681
:1025A000BDE8F88F3546F4E7CB1C033023F0030376
:1025B00020F00300184410308342C2D809F0ACF96F
:1025C00005460028EBD00444002307811334036040
:1025D000084B24F003044781C3604460DFE700BF79
:1025E000CC22010884230108A4260020A922000887
:1025F0008200010080000100502301082DE9F04114
:102600000D46044628B9234A4FF4CC712248FFF7FF
:10261000EBFB2389AB423BD9EE1A1E4FDFF88480D7
:102620006389AB421BD3227B120729D1AB4227D04F
:10263000637B9B0724D461682046091B294409F069
:1026400069F9D8B9134A40F2BD111448FFF7CCFB21
:10265000104A40F2BF111248FFF7C6FB10E0ED1A16
:1026600023893344ADB223812468002CD8D13A4663
:1026700040F2AF114046FFF7B7FBD1E78442E7D104
:1026800020686581258108B1FFF7BCFE0023236027
:10269000BDE8F081CC220108A0230108D023010865
:1026A000EC230108B8230108F8B50D4604460026BE
:1026B00085B17CB16189A94208D827686D1A204686
:1026C0002660ADB23C46FFF79DFEF1E72946204665
:1026D000FFF770FE2046F8BD0346002290B201329B
:1026E00003B970471B68F9E710B5044680B108F0DC
:1026F000A9FEA37B0133A37308F0ACFEA37B3BB917
:10270000044A4FF451710448BDE81040FFF76CBB18
:1027100010BD00BFCC2201080824010838B50D46C1
:10272000044600B121B938BD29890B4423811446E0
:1027300022682389002AF7D162899A420DD00A4A79
:102740004FF459710948FFF74FFB23682BB1064A34
:1027500040F265310648FFF747FB2A892389256047
:1027600013442381DFE700BFCC2201081C240108A9
:102770004924010810B50C46FFF7D0FF2046BDE8FC
:102780001040FFF7B1BF00002DE9F84F054616468F
:102790001F460C46002947D00B89934244D300289A
:1027A00042D00289BB199A423EDB4FF00008DFF8A5
:1027B000C090DFF8C0A0B5F80AB06289ABEB070B98
:1027C0006868A2EB0802616838449345414428BF19
:1027D0009346B34528BFB3465A465F44FEF7B6FF5B
:1027E0006B89A6EB0B06D844BB42B6B205D24A466B
:1027F00040F2F7311D48FFF7F7FA6389434505D2E8
:102800004A464FF47E715046FFF7EEFA638943451E
:1028100004D8246804B93EB94FF000086B89BB4264
:1028200020D12D68EDB9C6B16FF00F0010E037462A
:10283000628923899A4201D123685BB92DB16A89E3
:102840002B899A4201D12B6823B9002EB3D130468F
:10285000BDE8F88F6FF00500FAE7002CE7D12046BD
:10286000F6E70027002CE3D1E9E700BF5C2401086C
:10287000CC2201087324010819B100230A89FFF74B
:1028800083BF6FF00F0070472DE9F0410F4690466F
:10289000054618B321B30026B8F1000F00D015B9D2
:1028A0003046BDE8F0816C892BB1A34203D31B1BDA
:1028B0009BB22D68F0E7E41A6968B819A4B219440C
:1028C000444528BF444622462644A8EB0404FEF7AC
:1028D0003DFFB6B200231FFA84F8EAE70646DFE7B9
:1028E0000E46DDE738B515460A462989FFF7ECFDA7
:1028F000044648B12946FFF7BFFF28B1034A40F21A
:1029000043510348FFF770FA204638BDCC22010836
:1029100090240108F0B5124C4FF480404FF6FF763A
:10292000238801330F4D04229BB2B34208BF4FF4FA
:10293000404355F8041B096831B9013A12F0FF020F
:10294000F7D11846238007E0CF8A9F4205D101388E
:1029500080B20028E5D12380F0BDC968ECE700BF54
:1029600054230020B429010808B508F0FFFB6FEAE2
:102970008040024B6FEA9040188008BD542300202D
:1029800010B5037D0446012B04D1054AD421054826
:10299000FFF72AFA21460120BDE8104009F038B8B7
:1029A000A4240108C624010810B5044628B90F4A1A
:1029B0004FF494710E48FFF717FA08F00FFC638B81
:1029C0009B0511D4E36F7BB15A7F01325A77E36FD5
:1029D0005B7F2BB9054A40F22D110648FFF704FA38
:1029E000638B43F40073638310BD00BFA42401080C
:1029F000D8240108E424010810B5044628B90F4A78
:102A000040F23F110E48FFF7EFF908F0E7FB638B48
:102A10009B0511D5E36F7BB15B7F2BB9074A40F271
:102A200043110848FFF7E0F9E26F537F013B53770A
:102A3000638B23F40073638310BD00BFA4240108DB
:102A4000D8240108E424010810B5044628B9174A1F
:102A50004FF4CE711648FFF7C7F9237D042B11D030
:102A6000072B1BD0032B0BD1204603F081F870B944
:102A70002046FFF7C1FF05232046237503F0BEF96A
:102A8000002010BD204603F073F80028F3D0431C4B
:102A9000F7D1638B43F008036383F1E7204603F02B
:102AA00067F80028F3D10923E6E700BFA424010852
:102AB000D8240108F8B50E460546144608F08EFBEA
:102AC0001B4B002E08BF1E4645B32B7D4BBB34B9B4
:102AD000FFF720FF044650B96FF0010012E01549DE
:102AE00051F8042B126872B90133042BF8D1336802
:102AF00003B12B60104BEC821A681D60EA6003F092
:102B000047FC0020F8BDD08AA04205D117685FB10C
:102B1000306848B1874207D0D268E4E76FF00F0011
:102B2000F0E76FF00500EDE76FF00700EAE700BFA0
:102B3000343C0108B4290108B026002038B50C4601
:102B4000054608F04BFB1CB194F840400134E4B258
:102B50002C7238BDF8B505460E46174608F03EFB08
:102B6000002D4CD02B7D002B4DD1022008F044FFCE
:102B7000044600284BD02B690361EB8AC3820123F2
:102B800003756B7D43756B7A43722B7A0372EB7A14
:102B9000C372AB7A83722B680360EB8A3BB11D4A28
:102BA0001368AB4223D1EB6813600023EB60284627
:102BB000FFF7E6FE184BA36100236377237D012B0B
:102BC00005D0164A4FF465711548FFF70DF9154BFE
:102BD000012E1A6838BF01261C602677E26003F0D8
:102BE000D7FB002307B13B702046F8BD1346002BEE
:102BF000DBD0DA68AA42F9D1EA68DA60D5E72C4678
:102C00006FF00F03EEE76FF00E030024EAE74FF0DA
:102C1000FF33E7E7B0260020B9300008A4240108FC
:102C2000FC240108B4260020F8B5044628B9134A4C
:102C300040F2AA311248FFF7D7F8228D41F27076A0
:102C4000E36A678E656AD01AB742284494BFC11BF5
:102C5000811B002901DB6285F8BD5D1B02D50020C8
:102C60006085F9E7B5F5803F05D3044A40F2BA31F3
:102C70000448FFF7B9F800206585EDE7A4240108B2
:102C80002C2501085025010838B505460C4608F0EA
:102C9000A5FA2DB32B7D012B05D1124A40F2D63176
:102CA0001148FFF7A1F82A8D42F6E063111989B2A5
:102CB000994213D88A4288BF194628462985FFF7CA
:102CC000B3FF40F6B73398420AD96B8B284643F0DE
:102CD00002036B83BDE8384003F090B81946ECE777
:102CE00038BD00BFA42401086C25010810B50446B6
:102CF00048B1406808B1FFF785FB21460320BDE8D5
:102D0000104008F085BE10BD10B500B910BD0468B4
:102D1000FFF7ECFF2046F8E738B5044628B90D4A1E
:102D200040F286610C48FFF75FF8032008F064FE6C
:102D3000054660B12346024604F1100153F8040B26
:102D40008B4242F8040BF9D16868FFF7CDFC2846A6
:102D500038BD00BFA42401089425010838B50446F5
:102D60000D4608F03BFA04B1256138BD38B504467C
:102D70000D4608F033FA54B1237D012B05D1044AE6
:102D80004FF4FD610348FFF72FF8C4F8845038BDB5
:102D9000A4240108B025010838B504460D4608F002
:102DA0001DFA54B1237D012B05D1044A40F2FC7178
:102DB0000348FFF719F8C4F8805038BDA42401086F
:102DC000D825010838B504460D4608F007FA54B175
:102DD000237D012B05D1044A40F616010348FFF775
:102DE00003F8C4F8905038BDA42401080026010857
:102DF00038B504460D4608F0F1F91CB1237D012BCE
:102E000008BFA56138BD000070B504460E461546E2
:102E100008F0E4F95CB1237D012B05D1044A40F6AA
:102E200048010448FEF7E0FFC4F88C60657770BD88
:102E3000A42401082826010808B528B9064A40F646
:102E4000B9010648FEF7D0FF054B064A186812681C
:102E50001044186008BD00BFA424010848260108DA
:102E600050230020B826002038B504460D462AB964
:102E7000094A40F6CF010948FEF7B6FF4DB1AB8EC7
:102E80003BB1282B8ABF283B00239BB29C4228BF22
:102E90001C46204638BD00BFA42401086426010852
:102EA00010B50446406F18B1FFF72EFF002363678B
:102EB00010BD000010B50446F8B1037D012B1CD9EC
:102EC0000A2B1AD0FFF798FDA06F18B1FFF79AFAF6
:102ED0000023A367636F13B12046FFF7E1FF4FF6AE
:102EE000FF73E06E2386FFF70FFF206FFFF70CFFE5
:102EF0000023C4E91B33A4F8683010BD38B505467B
:102F00000C4629B9274A40F68D012748FEF76CFF89
:102F10002DB9244A40F68E012448FEF765FF2B6840
:102F2000A3421DD1E3682B6000232046E360FFF736
:102F3000C1FF237D0A2B1BD1E36E5BBB236F2BB13B
:102F4000184A40F69E011A48FEF74EFF636FEBB138
:102F5000144A4FF40A611748FEF746FF16E013467D
:102F6000002BE1D0DA68A242F9D1E268DA60DBE74F
:102F7000012B0BD0638BDA07DED543F0020320462A
:102F8000638302F03BFF237D012BD5D10023237502
:102F9000E38238BD034A40F69D010748FEF724FF4F
:102FA000CCE700BFA42401088C260108A82601084C
:102FB000E0260108F9260108C82601082DE9FF4787
:102FC00004460E4608F00AF9002C61D0237D012B3F
:102FD00005D1314A4FF410713048FEF705FF237DCB
:102FE0000A2B09D121462E48FFF788FF204604B05E
:102FF000BDE8F047FFF7C4BCD4F85090D4F824A043
:10300000D4F89070D4F81080E58A9BB93DB1254A78
:103010001368A34206D1E36813600025E5602E46DD
:103020000FE01346002BF8D0DA68A242F9D1E2682B
:10303000DA60F2E721461C48FFF760FF1B4B0122D4
:103040001A70206F08B1FFF75FFEE06E08B1FFF75E
:103050005BFE606F08B1FFF757FE2046FFF7CCFC20
:1030600056B1238B524649462046CDE90153231DD4
:103070000093234602F056FE2046FFF781FC3FB145
:103080006FF00C0140463B4604B0BDE8F0471847DE
:1030900004B0BDE8F08700BFA42401081027010890
:1030A000C0260020B0260020A8260020AC26002044
:1030B0000121FFF783BF000010B50C4629B9064A6D
:1030C0004FF444710548FEF78FFE2046FFF7F0FFEE
:1030D0006FF00C0010BD00BFA424010844270108B4
:1030E000F8B50C46054628B90B4A40F60A110B48BC
:1030F000FEF77AFE4FF6A96604B9F8BD23682A6880
:10310000E768934205D19BB2B34202D02046FFF755
:10311000CFFF3C46F0E700BFA42401086427010864
:1031200038B50D46044680B1036873B10B4B19687E
:10313000FFF7D6FF0A4B20461968FFF7D1FF25B1EC
:103140002B6813B1074B1B6803B938BD1968226897
:10315000914204BF2A681A60DB68F5E7A8260020C0
:10316000B0260020B42600200C4B002230B4196891
:1031700004460B4B10461D6819B968B130BCFFF707
:103180001DBF0B7DA34205D10B6AEB1A934224BFEE
:103190001A460846C968EFE730BC7047A8260020E9
:1031A000B8260020F8B5044608F018F8012008F009
:1031B00023FC0346002836D13F4E3068002857D103
:1031C0003E4B01463E4D1B682F68002B5BD108B17A
:1031D000FFF76EFF012008F00FFC034618BB092023
:1031E000FFF7C2FF012008F007FC0346D8B908200A
:1031F000FFF7BAFF012008F0FFFB034698B922064B
:1032000049D45CB121460139326800202E68C9B228
:10321000002A42D113B11846FFF74AFF012008F0F7
:10322000EBFB034610B39C2218460021FEF7C0FAC0
:1032300042F6E06203464475A0F86420214A8262A7
:10324000FF22C2720622A0F84020C2871E4A0263F3
:103250001B4A126802621D4A127882771C4A8264F5
:103260001C4AC0F884201C4AC0F894201846F8BDB7
:10327000438BC568190704D523F008034383FFF780
:10328000E3FB28469AE71A6ABA1A8A4224BF18460C
:103290001146DB6899E77F21B5E7577D8F4204D35C
:1032A00007D1156A751B854203D3106A3946134648
:1032B000301AD268ACE700BFA8260020C026002044
:1032C000B8260020E02EE02EFFFF1802BD260020C9
:1032D0000100E02E6D34000800DD6D004020FFF796
:1032E00061BF000030B50D4685B0044628B94A4A92
:1032F0004FF4AF714948FEF777FD237D002D3FD095
:10330000042B01D0072B3BD1A26F22B9218D42F6AD
:10331000E062914234D0638BDB0605D43E4A4FF421
:10332000B2713F48FEF760FD238B20460293E38A8B
:103330000193231D00932346626A216D02F0F2FC83
:103340002046FFF7B7FD374A1368A34210D1E36860
:10335000136000230122E360334B1A70334B1B6868
:10336000A3421DD101F060FE002005B030BD134620
:10337000002BEED0DA68A242F9D1E268DA60E8E721
:10338000012B1AD0022B38D0002B3ED1E38A3BB15F
:10339000274A1368A34208D1E36813600023E3605F
:1033A0002046FFF7EDFADFE71346002BF6D0DA6888
:1033B000A242F9D1E268DA60F0E71E49002051F834
:1033C000232012689AB90133042BF8D121461A48F8
:1033D000FFF794FD237D012B04D10F4ADF2117480D
:1033E000FEF702FD2146022008F012FBBCE7D56F74
:1033F000AC4208BFD067D268E4E721460948FFF72E
:103400007DFD094B01221A70CAE7204605B0BDE8D0
:103410003040FFF719BB00BFA4240108982701081A
:10342000B8270108A8260020AC260020EC260020A2
:10343000B0260020B4290108B4260020D1270108B5
:1034400010B5044607F0CAFE64B1237D2046012171
:10345000012B1EBF638B43F010036383BDE8104054
:10346000FFF740BF6FF00F0010BD000010B5084619
:10347000144669B13AB11189FFF706FC2046FEF700
:10348000C1FF002010BD33B9BDE81040FFF7D8BF21
:103490006FF00F00F6E71046F4E70000F8B50446B9
:1034A00080B3866F0023D0F88450777B8367E5B1C3
:1034B000014632460069A8470546E8B9BB0612D561
:1034C000238D42F6E062D4F8846093421CBF01333E
:1034D000238546B10023214620691A46B0470D30A6
:1034E00001D16FF00C052846F8BD01462B46324647
:1034F0002846FFF7BBFFDFE70D35F2D06FF004057C
:10350000A667F0E76FF00F05EDE700002DE9F8433F
:103510001B4D1C4F2B781C4E01332B703C684FF019
:1035200000080CB9BDE8F8832B78A27F9A4224D01A
:10353000A377638BD90709D543F002032046638341
:1035400002F05CFC638B23F003036383638B1A0735
:1035500005D523F0080320466383FFF775FAA36FB0
:10356000D4F80C903BB1204686F80080FFF796FF18
:103570003378002BD2D14C46D3E7D4F80C90FAE73D
:10358000BD260020A8260020AC26002070B50546E8
:103590000E46144607F022FE1DB32B7D012B19D0D9
:1035A00096B16B8B43F010036B832CB1012128463D
:1035B000BDE87040FFF796BEA86F08B9002070BD47
:1035C000FEF720FFAC67F9E7002CF7D0042B04D8F6
:1035D000022B04D86FF00A00F1E7072BFAD1002183
:1035E000E5E76FF00F00EAE72DE9F04F9E4D87B059
:1035F000DFF89C922B68DFF89C8201339B4E2B6096
:1036000099F80030013389F80030D8F800B000276D
:10361000BBF1000F0CD1964E944F3468DFF87882DE
:10362000DFF87892002C40F0DE8107B0BDE8F08F23
:103630009BF814202AB9324640F2C2418D48FEF769
:10364000D3FB9BF81420012A05D1324640F2C34136
:103650008948FEF7C9FB9BF814200A2A05D1324697
:1036600040F2C4418548FEF7BFFB99F800209BF863
:103670001E10914204D1DBF80C405F46A346C7E719
:103680009BF814108BF81E2002299BF8422040F072
:103690009D80032A40F29C804FF0010A9BF814C0E1
:1036A000BCF1060F0DD1BBF81A20D30609D52A6844
:1036B000DBF82010521A282A84BF0AF1010A5FFAA7
:1036C0008AFA9BF8094014F008041CD0BCF1040FDE
:1036D00003D0BCF1070F40F04981DBF820204FF404
:1036E000FA742868801ADBF8942002F5242101F688
:1036F000B841B1FBF4F1884240F226810AF1010A97
:1037000001245FFA8AFADBF874206AB12A68DBF8D0
:103710002010511ABBF9402002EB4202B1EB420FDC
:1037200002D35846FFF7BCFB9BF81420032A40F055
:103730001F812A68DBF82010521A282A03D8BAF110
:10374000000F00F02B815846DBF890A0FFF7B2FB8A
:10375000D8F80020002F00F014815A4505D13246D8
:1037600040F271514648FEF73FFBDBF80C20FA604F
:1037700084B1BBF818205B4658460292BBF816206D
:1037800001920BF104020092DBF82420DBF85010C8
:1037900002F0C8FADBF810205846DBF80C4005921E
:1037A000FFF7EEF8DFF8F8B000218BF80010BAF15F
:1037B000000F09D0059A6FF00C011046D0479BF816
:1037C0000030002B7FF421AFBB4656E70B2A61E7A0
:1037D0009BF899A0BAF1000F64D0DBF870202AB1F1
:1037E00032464FF49B612748FEF7FEFADBF86C2067
:1037F0002AB9324640F2D9412348FEF7F5FA9BF840
:103800009A200B2A3FF648AF9BF899101F4A0A44AA
:1038100012F8011C9BF898208A420BD3BBF8601069
:1038200089B1584602F052F890B9584602F0E6FACB
:1038300030B10DE00132D2B28A428BF89820EDD23D
:103840004FF0000A2AE7584602F0DCFC0028F7D1C6
:103850009BF899204FF0000A062A8BF898A0EFD821
:1038600001328BF8992019E7B8260020A42401081A
:10387000C0260020EC270108152801083E28010871
:10388000D12801086A2801089C280108C4290108D8
:10389000BD260020A8260020262901087C29010831
:1038A000AC260020BBF8302047F6FE718A429CBF50
:1038B0000132ABF83020BBF94020BBF93010914207
:1038C000BEDB584602F082F938B1DBF87020002ADE
:1038D000B6D1DBF86C20002AB2D09BF81420022A63
:1038E00014D0BBF93C10BBF93E205A4802EBE10270
:1038F0009BF842100C2928BF0C21415C8A4047F6F6
:10390000FF718A42A8BF0A46ABF84020BBF860109E
:103910000024BBF84820BBF832C09142ABF83040DD
:10392000ABF848C028BF11464FEA4C02ABF86A40DA
:1039300092B24808B2EB510F98BF02465846ABF816
:103940004A2002F007FCA9E69BF89B10424B03FBC0
:103950000122B2FBF4F2904208D9584602F02CFC46
:1039600020B99BF89B2001328BF89B200024CAE6EB
:10397000092A7FF4E4AE2A68DBF82010521AF02AF4
:10398000DCE65A4505D0324640F275513348FEF721
:103990002BFADBF80C20C8F80020E9E69BF81C2085
:1039A0009BF81D100132DBF80C40D2B291428BF82B
:1039B0001C203FF662AE2A4FDBF88C208BF81CA04F
:1039C00087F800A01AB9584602F018FA55E6594689
:1039D000DBF8100090473A78002A7FF416AE0028F2
:1039E0007FF44BAEEFE7227D0A2A05D03A4640F23B
:1039F000A5514046FEF7F8F92A68216A521AF02AC2
:103A000011D92046FFF756FABBF1000F0ED13268EC
:103A1000A24205D03A4640F2B7514846FEF7E4F9D3
:103A2000E26832600EE0A346E468FBE53268A24239
:103A300005D13A4640F2B3510A48FEF7D5F9E2689B
:103A4000CBF80C20D4F80CA02046FEF799FF544682
:103A5000E8E500BFA4290108F8240100FC280108BA
:103A6000AC2600205529010808B5FFF74FFD064A8E
:103A700013780133DBB21370DB0703D5BDE80840D0
:103A8000FFF7B2BD08BD00BFBC260020094A13885D
:103A9000591C1180084A12681AB1084909888B42DA
:103AA00004D2074A12681344187D70475B1ADBB2D0
:103AB000D05C7047F0260020FC260020F82600206D
:103AC000F4260020F8B50C46054628B91D4A40F2F8
:103AD0002C411D48FEF788F9EB689889FEF7F2F94A
:103AE000C20714D4194EE76830682B897968228997
:103AF00003440A449A1A002A0FDACB1A002B0ADA76
:103B0000091A686889B22981FEF778FD03E020462A
:103B10000024FFF7F9F82C60F8BDB889FEF7D2F958
:103B2000C30707D5EB6801209F89FEF7CBF9EB6847
:103B30003843988127682046FFF7D8F83C46002F85
:103B4000D1D1E8E7CC290108F1290108E8260020B5
:103B5000F8B5064628B91C4A40F283711B48FEF7A7
:103B600043F91B4B1F8867B11A4D00232B802B880C
:103B7000BB4206D2FFF78AFF0128F8D0022801D005
:103B8000C8B9F8BDFFF782FF0428FAD12B880133AA
:103B9000BB42F6DAFFF77AFF0402FFF777FFA4B221
:103BA00044EA00039BB25A1EB2F5806F28BF4FF45F
:103BB00080637386DBE7FFF769FF0128E1D92B8873
:103BC000023B18442880D2E7CC290108182A0108B2
:103BD00000270020F026002010B5044628B90F4A1F
:103BE00040F25A210E48FEF7FFF80E4B187810F0FD
:103BF000100011D0638BDB0606D4D4F890301BB1D3
:103C00006FF00E012069984721460748FFF776F9C3
:103C10002046FEF7B5FE012010BD00BFCC290108EB
:103C2000342A0108E4260020A82600202DE9F84FB8
:103C3000064617460C46DFF8A490DFF8A8A0002C33
:103C40003AD0244B1D68E3685868FEF73FF9E268F4
:103C5000B4F8088083469089FEF734F9A5EB080391
:103C600010F00300A3EB0B0518BF01202D1A002D47
:103C700023DBD4E900B0FEF72FFDB6F86630054629
:103C8000834205D24A4640F264415046FEF7ACF802
:103C9000B6F86600104A451B20461188A6F8665003
:103CA00023890B441380FFF721F8B6F8663073B10F
:103CB000BBF1000F0BD11FB100242046BDE8F88FE7
:103CC000064A40F26E410648FEF78EF8F4E75C467D
:103CD000B5E700BFC4260020DC260020CC2901085F
:103CE000842A01085C2A01082DE9F84F044628B906
:103CF000374A40F287413748FEF776F8237D032B99
:103D000005D8334A4FF491613348FEF76DF8334BD1
:103D1000334E1B78334F13F0100F00F0958032684C
:103D2000314DB4F860102B68D4E9150EA0EB020CED
:103D3000BCF1000F0CDB904203D1AEEB0300002876
:103D400006DB9E4513D129480068C08988420ED9F8
:103D50002648B4F862800068C0891FFA80FCA4F885
:103D60006000E045C4E9152338BFA4F86200626C26
:103D7000D01A0028C0F269813888002839D1B4F8F7
:103D800060C07144A06D6044884232D1B4F93010F3
:103D900000292EDB9A422CD194F84330FF2B1CBF14
:103DA000013384F8433094F84330032B20D9B4F81E
:103DB00048204FF6FF71638E13449BB29A4288BF2E
:103DC0000B46A4F84830204601F07CFF11E000BF0C
:103DD000CC290108A42A0108BD2A0108C826002010
:103DE000E826002002270020C4260020F426002018
:103DF000E9D0616B41B3A36B2A689B1A002B23DACD
:103E0000B34B89B2B3F800C0B4F93C30ACEB01025B
:103E1000C3F3CF00121A15B213FA82F2B4F93E308E
:103E2000002D12B2A3EBA303B8BFA1EB0C01A28734
:103E3000BCBF09180DB22B449BB2E38703EBE2032E
:103E4000A4F840300023636338883368626A00282E
:103E500000F04483217D062900F24083D51A012D0C
:103E600000F19A81591E0144891A0029C0F29481F7
:103E7000DFF87092D9F80480B8F1000F05D1954AA7
:103E800040F29A519448FDF7AFFF4FF6FE739D4202
:103E900005D9904A40F29B519048FDF7A5FFD9F80B
:103EA0000430ADB21B89AB4205D28A4A40F29D5123
:103EB0008B48FDF799FFB9F8083000215B1BA9F882
:103EC0000830D9F804301B895B1B9BB2B8F80A2074
:103ED000AA42C0F0588129464046FEF76BFA636A51
:103EE000D9F80C20336053603368626A991A00294C
:103EF000C0F224826FEA030C208D02EB0C01C84251
:103F000000F11C82934240F01382764DEB68B5F8C5
:103F100008809889FDF7D6FF10F00300238D18BFA5
:103F20000120404480B28342388040D2EB689889B7
:103F3000FDF7C8FFC20710D5EB68B3F80C80404608
:103F400028F47C58FDF7BEFF00F03E00FDF7BAFFF5
:103F5000EB6848EA0008A3F80C80238D2B81EB68FE
:103F60009889FDF7AFFF8307686842BF2B8903F18B
:103F7000FF332B812989FEF741FBEB68B5F80880F8
:103F80009889FDF79FFF10F00300336818BF0120E8
:103F9000626A404480B238801844238D13449842AA
:103FA00005D04C4A40F2D1514F48FDF71DFF636FD9
:103FB000002B00F00081EB689889FDF783FFC007B4
:103FC00000F1F680D4F8748030683B880344B8F17F
:103FD000000F37D0D8F80CC0B8F80810DCF804206F
:103FE0001144591A002980F21281D31A002B29DAC0
:103FF000EB68121A2A819889FDF764FF83076868C5
:1040000042BF2B8903F1FF332B812989FEF7F6FA92
:10401000EB68B5F808909889FDF754FF10F003009D
:10402000336818BF0120484480B238801844D8F85B
:104030000C305B68984205D0264A40F202612B485A
:10404000FDF7D2FEC4F87480B5E0D143D94200F147
:104050009680216DC91A0029C0F29180618B4807B2
:1040600009D521F004016183B4F84A10A4F848107E
:104070000021A4F86A10B4F93C00E18F636401EBFD
:10408000E001A4F840100021A4F84210217D03298A
:1040900038D99B1AB4F84A10B4F848209BB2914220
:1040A00026D9618B11F4006F618E14BF01200220AC
:1040B00011FB00F189B2994294BF5018D01883B215
:1040C0009A4201D94FF6FF73A4F848301AE000BFB6
:1040D000B8260020CC290108D62A0108E62A0108C2
:1040E000F52A0108CC260020052B01083B2B0108EE
:1040F000B4F86A100B449BB299422CD89A422CD93E
:10410000A4F86A302046D4E91B21FFF78FFDE16E49
:10411000024620672046FFF789FD226FE066B2FA6B
:1041200082F35B095B4223860023237708B9A4F856
:1041300068009A49B4F8643009880B44A4F86430E4
:10414000638B19057FF555AEBAB968B9638B23F453
:10415000006363834DE64FF6FF739B1AA4F86A3041
:10416000638E13449BB2ABE7C3685868FDF7AEFE9D
:10417000E36CC01A0028E9DA3BE6D368F5E720468D
:1041800001F00CFE35E6AD1AA8F80830A8F80A10C0
:10419000ADB2D8F8008099E69B1A002BBEBF638BA6
:1041A00043F0020363839FE603686367FEF79EFDA7
:1041B000606F0028F8D13A88336813446362238D16
:1041C000934205D2764A40F20D617648FDF70CFE27
:1041D000238D20463A889B1A2385FEF725FD6B68C0
:1041E0001A891AB1704A136000236B60EB689889D2
:1041F000FDF768FEC50704D56C4A137843F0200329
:104200001370DFF89C81DFF8AC91674F7AE0BCF85F
:104210000C00FDF757FEC1071BD5EB689889FDF729
:1042200051FE820715D4EB680120B3F80C90FDF71E
:1042300049FEEB6849EA0000B5F808909881EB6800
:104240009889FDF73FFE10F0030018BF0120484495
:104250003880D8F800904046FEF748FDC846B3E6DF
:1042600033609089B5F808A0FDF72CFE636A10F062
:1042700003009A4418BF01205044B4F828A060629B
:10428000EB68B5F808B09889FDF71CFE10F0030044
:1042900018BF01205844824505D2424640F23161A0
:1042A0004846FDF7A1FDEB68B5F808A09889FDF731
:1042B00009FE10F00300238D18BF01205044181A86
:1042C00020852046FEF7B0FC69680B892BB1386861
:1042D00038B3FEF723FA00236B60EB689889FDF78B
:1042E000F1FDC00709D5314A137843F0200313705C
:1042F000237D042B04BF072323752B68284663679F
:10430000FEF7F4FC656F25B1EA68616A53688B4279
:10431000A6D0638BD90706D523F0010343F002032F
:1043200003E03960D7E743F001036383BDE8F88F0A
:10433000656F45B91E48FEF7EFFC60672046BDE893
:10434000F84F01F02BBD4FF0000803F1FF3EE86885
:104350004268934215D116482B8902899A42EDD9B9
:10436000FEF7DAFC0028E9D0B8F1000F07D0C8F852
:1043700000002946FFF7A6FBE0E70D46E7E7606788
:10438000F7E7B8F1000F17D1991A00293BDA08486E
:10439000FEF7C2FC0028D1D06067EAE7DC260020E7
:1043A000CC290108752B0108E0260020E426002016
:1043B000CC260020932B0108D8F80C104968AEEBEE
:1043C000010100291FDB12EB0C0F1CD44948FEF73A
:1043D000A3FC07460028B1D0D8F80C3031685A68E1
:1043E000B8F808301344CB1A002B07DA891AD8F82A
:1043F000040089B2A8F80810FEF700F929463846EB
:10440000C8F80070B6E72968A8460029B5D1D31AC4
:10441000002B93DA8089FDF755FDC2078ED435480D
:10442000FEF77AFC2860002888D0EB6831685A686B
:104430002B891344CB1A002B05DA891A686889B2D4
:104440002981FEF7DBF83B8832681A44636A9B1ABD
:10445000228DD3427FF572AF2B68DB689889FDF718
:1044600031FDC30712D52B68DB68B3F80C804046DA
:1044700028F47C58FDF726FD00F03E00FDF722FDF4
:104480002B6848EA0008DB68A3F80C803168238DAC
:104490002A685B1A616A0B4413812B681989586872
:1044A000FEF7ACF82B681D89DB689889FDF70AFDDB
:1044B00010F00300336818BF0120626A284480B2FC
:1044C00038801844238D134498423FF437AF0A4A8A
:1044D00040F2FE610948FDF787FC2FE7991A002991
:1044E00005DBDB431344228DD3427FF51FAF638B83
:1044F00014E700BFCC260020CC290108052B0108B9
:104500002DE9F04F054687B006F068FE25B9674AE9
:1045100083216748FDF768FC6B68664E33606B89E2
:10452000132B40F2BC80DFF8B481D8F80010D8F823
:10453000140004F031FE002840F0B180D8F81430A7
:1045400003F0F003E02B00F0AA8008F11403062129
:104550002846009308F110032A8907F02FF9044632
:10456000002840F09C8033689889FDF7ABFC810AF5
:1045700001F0FC01132940F292802B898AB28B4210
:10458000C0F08D80A2F114036889DFF854919BB2CA
:10459000494F9042DFF84CA1A9F800303C6040D36D
:1045A0002846AAF80030FDF705FF3468DFF838B177
:1045B0002088FDF787FC20803468404F6088FDF735
:1045C00081FC608034686068FDF780FC606034685E
:1045D000CBF80000A068FDF779FCA0603468386073
:1045E000E089FDF76FFC3368E0819889FDF76AFC8C
:1045F000334A00F03F03137083072A8949D1314BB6
:104600001A80314B4FF00009284A1C68DFF8DCA003
:10461000002C6FD12D4BDFF894A01C68DFF8D090F0
:104620005AE12B6823B9214AC2212948FDF7DCFB56
:1046300014212846FDF7BEFE6C89B9F80090284683
:104640002146AAF80040FDF7B5FEA9EB040A286848
:104650001FFA8AFA4389534521D3436851463B6088
:10466000FDF7A8FE2B891C446B89A4EB09042C815F
:1046700023B10E4ADF211748FDF7B6FB2B682A89C4
:104680001B899A4291D0094AE0211348FDF7ACFBFF
:104690008BE7531C0B499BB29A420B80B1D9284639
:1046A00007B0BDE8F04FFDF7ADBE00BFCC29010853
:1046B000B82B0108F4260020FC260020C426002088
:1046C000C826002002270020A8260020C02600209F
:1046D000D02B0108E02B0108EC2B0108942F0020BF
:1046E00000270020F8260020E8260020322C0108B0
:1046F000D82C0108237D23B9FB21A548FDF774FBC5
:10470000A44A237D0A2B04D1FC215046FDF76CFB03
:10471000A04A237D012B04D1FD219F48FDF764FBB6
:104720009C4A217A39B1D8F8043093F840300133EB
:10473000DBB2994274D13368208B198888426FD1DB
:10474000E18A5B8899426BD16168D8F81030994250
:1047500066D12168D8F81430994261D1E368A34248
:1047600040F054848B4A40F20D118C48FDF73CFB1D
:10477000B9F1000F06D0E368C9F80C30884B1A680D
:104780001C60E260E368A34205D1824A40F2151141
:104790008448FDF729FBDFF82C9200232A89DFF8F3
:1047A00028A2A9F808203268DFF82082C9F80C2076
:1047B0007D4AC9F80030CAF8003088F8003013800C
:1047C0007A4BC9F804501B781B0703D56B7B43F069
:1047D00001036B73A36F002B00F057812046FEF797
:1047E0005DFE0D3008D0A36F002B00F04E81704BA2
:1047F0001B88002B00F04981638D13B9204601F01E
:10480000CDFA00246B4BD9F804001C60CAF80040B4
:1048100018B1FDF7F7FDC9F8044007B0BDE8F08F07
:10482000A146E468F4E6237D0A2B05D0524640F207
:104830001F114846FDF7D8FA227A3AB1D8F8043069
:1048400093F840300133DBB29A4244D13368208B75
:104850001A8890423FD15B88E18A99423BD16268D5
:10486000D8F810309A4236D12268D8F814309A42DB
:1048700031D14E4B1B785E073FF511AF4C4A16887D
:104880009A0718D5DBF80020636AA2EB030CBCF191
:10489000000F15DBB4F828C09B1A1CEB030F0FD4D4
:1048A000454B324400930433CDE90110204639686A
:1048B00001F038FAF3E6DF0742BF404B1B68236282
:1048C000002E3FF4ECAE638B204643F0020363837B
:1048D00001F094FAE3E6E468002CA4D1384BD8F850
:1048E00004001A683168D8F814E09146B9F1000F55
:1048F00016D18889FDF7E6FA42073FF5D0AE336856
:104900002B4A1888118802905B88DBF800200193FD
:10491000294B0A44009304333968D8F8040071E342
:1049200099F808C0BCF1000F05D090F84030013371
:10493000DBB29C450CD1B9F816C04B889C4507D119
:10494000D9F80030734500F03E83002B00F03B8324
:104950004C46D9F80C90C9E798077FF5A0AE99F8B6
:104960001D2099F81C309A42BFF499AE99F81500B1
:10497000FEF718FC074658BBD9F81830002B3FF457
:104980008EAE01464FF0FF32D9F81000984786E608
:104990000B2C0108CC2901085C2C0108832C010890
:1049A000A8260020AE2C0108DC260020C826002006
:1049B00002270020EC260020A42F0020B82600208B
:1049C000B4260020CC260020E0260020E42600208B
:1049D00099F81D30013389F81D30438B43F400737F
:1049E0004383D8F814300360D8F810304360B9F826
:1049F0001630C38233681B88038303230375DBF8F7
:104A0000003001334362C362FEF716FADBF8003070
:104A1000B865013B38657864F8657B65D9F8103076
:104A2000C7F87C903B6199F8093003F00C037B7266
:104A300099F808303B72A24B1A681F60FA6001F0C7
:104A4000A7FCA04B012238461A70FFF781F83368A3
:104A50003A1D7E8EDB8910460592A7F86030A7F8D4
:104A6000623004F09BF9059A01463046FEF7FCF9E6
:104A700012217886384600F0EFFF20B121463846F3
:104A8000FEF79CFA0BE6384622E78F4B1C608F4BF3
:104A90001A7851073BD5217D022921D1226D3B682F
:104AA0009A4209D198F8003043F0080388F80030A2
:104AB000638B23F00103638398F80030180740F1FB
:104AC0000382D4F890301BB16FF00D012069984734
:104AD00021467B48FEF712FA2046FDF751FF90E68B
:104AE000636ADBF80020934208D0D11A0029E3DB87
:104AF0009B1A228DD342DFD4638B0FE00029D1D1E2
:104B0000734A40F23B317348FDF76EF9CAE79207EA
:104B1000638B06D5227D023A012A02D943F00203B3
:104B2000C9E7DD0620465EBF6B4B1B68236200238E
:104B3000A4F89A30FFF70CF8644B1B7813F00201CD
:104B400003D0227D023A012AB6D8227D023A072AF2
:104B5000B2D8DFE812F0080095001B011F016801C0
:104B60001B018201A10103F01202122A69D1626CB9
:104B7000396801328A4264D1DBF800306264591C22
:104B80003268013B658E6162E162D289636504230C
:104B9000A4F86020A4F86220E2182375104605925C
:104BA00004F0FCF8059A01462846FEF75DF941F24B
:104BB0001C134200608681009A42154638BF1D468C
:104BC000B5EB800F31D98BB2A4F84830B4F8663019
:104BD0002BB93F4A40F277314048FDF705F9B4F868
:104BE0006630256F013BA4F8663015BBE56E2DB924
:104BF000374A40F27F313A48FDF7F6F82B68E36612
:104C00002846FEF773F8236FB3B94FF6FF73238678
:104C1000D4F88830002B3FF46FAF00222146206982
:104C200098470D307FF468AFEBE59A4288BF93B2A6
:104C3000CAE72B682367E3E70023238684F8423022
:104C4000E6E7D8067FF538AF3368264A188811881A
:104C5000029020465B88DBF800200193224B0A4437
:104C600000930433396801F05DF894F84230032B67
:104C70003FF622AF00232046238601F085FA1BE78A
:104C800051B1636ADBF80020013B93427FF414AF1B
:104C9000204600F0DBFF0FE7D9067FF50DAF636C10
:104CA0003968DB43CB4260D4236D5B1A002B5CDB9D
:104CB00004232375E36FCBB92046FEF7F9F9A0E58D
:104CC000A8260020AC260020EC260020C8260020C4
:104CD000CC290108052D0108B8260020252D010842
:104CE0003B2D010802270020A42F00209B692BB92F
:104CF000A04A4FF46E71A048FDF776F82046FDF704
:104D00007BFEE36F9B69002BD6D0002221462069F1
:104D1000984718B10D303FF474ADCDE72046FEF74B
:104D2000E3FF964A13880BB1013B1380618E41F279
:104D30001C134A0088009A42154638BF1D46B5EB41
:104D4000810F0ED983B2A4F8483098F800309A0643
:104D50007FF5B2AE638B43F00203638307232375B1
:104D6000AAE69A4288BF93B2EDE73368844A1D8869
:104D7000108802955B88DBF800200193814B024488
:104D800020460093043300F0CDFF95E62046FEF761
:104D9000ABFFDAE72046FEF7A7FF98F8003013F0E4
:104DA000200F794B1B7830D013F0100F638B27D076
:104DB000216D3A68914223D1E26E0ABB43F00203AF
:104DC00020466383FEF776F8704A13689C4209D147
:104DD000E368136008E0DA68944202D1E268DA60BE
:104DE00002E01346002BF6D1694B01221A700A2308
:104DF0002375684B1A681C60E26001F0C9FA5BE633
:104E000043F0020363830823A9E7DB067FF554AE72
:104E1000226D3B689A427FF44FAEE36E002B7FF425
:104E20004BAE06239BE72046FEF75EFF98F8003066
:104E30009F067FF541AE638B204643F002036383F8
:104E4000FEF738F8514A13689C42C1D0002BCBD0F2
:104E5000DA689442C2D01346F8E72046FEF744FFD2
:104E6000494B1B78DE067FF527AE226D3B689A42E0
:104E70007FF422AEE36E002B7FF41EAE2046FEF7D9
:104E800019F8424A13689C42A2D0002BACD0DA68D1
:104E90009442A3D01346F8E72046FEF725FF3A4B8D
:104EA0001B78DD067FF508AE226D3B689A427FF4E1
:104EB00003AEE36E002B7FF4FFAD98F8003043F0B3
:104EC000100388F80030F7E52C4B1A882AB1D4F883
:104ED0008030EBB90023294A13802046FEF77CFE80
:104EE00000287FF48EACDAF800302BB3A36F2BB11F
:104EF000204A4FF4F3712848FCF776FF638BDAF809
:104F0000002013F0100309D01046FDF77BFAD3E61A
:104F10002146206998470D30DCD172E4D4F88450E2
:104F20000DB321462069A84710F10D0F3FF469AC7D
:104F300010B1DAF80030A36798F80030990605D56B
:104F4000A36F6BB35A7B42F020025A73134B0022BB
:104F500020461A60FEF740FE00287FF452AC20463F
:104F600000F04CFF4DE42B4621462846FEF77EFA22
:104F7000DAE700BFCC2901084E2D0108DC2600200D
:104F800002270020A42F0020C8260020A8260020E9
:104F9000AC260020C02600206C2D0108EC26002045
:104FA000238D42F6E062D4F8845093421CBF013353
:104FB0002385002DCAD00023214620691A46A84720
:104FC0000D30C3D11DE43CB1D9F80C30E360124B75
:104FD000C9F80C20C3F80090104B1B785C073FF514
:104FE0005EAB13F010043FF4B7AC0D4BDBF80020C0
:104FF0001C880B88224402934B880193094B009331
:105000000433396800F0AAFEFFF749BBB9F1000F7D
:105010007FF4B1ABFFF7BFBBB4260020C826002049
:1050200002270020A42F0020024A137843F0100327
:1050300013707047E426002010B5044628B9064ACC
:1050400040F29E510548FCF7CFFE6368987B01381B
:1050500018BF012010BD00BF882D0108AE2D01082A
:105060002DE9F843089D80460C4617461E469DF8DC
:10507000289025B91B4AEC211B48FCF7B5FEBC4221
:105080002DD29DF824309A0709D46B8B5B0626D469
:10509000B9F1000F03D0EB6E0BB92B6FFBB104F22B
:1050A000034525F00301B9420A4628BF3A4691B2AA
:1050B0004FF420724046FDF707FA054660B10368D9
:1050C0002BB1084A4FF487710848FCF78DFE6B89B5
:1050D0001B1B33802C816C812846BDE8F883214658
:1050E000E6E700BF882D0108D42D0108F32D010843
:1050F0002DE9F0470E46904699469DF820A00746B8
:1051000020B92D4AA6212D48FCF76EFE26B92A4A61
:10511000A7212B48FCF768FE4FEA8A05032006F01A
:105120006BFC044605F0040528B93046FDF76AF922
:105130002046BDE8F087002380F80AA01FFA85FA10
:10514000C0E900363389AB4204D21B4AB3211D4863
:10515000FCF74AFE338930461421A3EB0A0323816E
:10516000FDF724F9064620B120460024FDF7BEFDD8
:10517000DEE76368AD02D3F804A005F5A045C4F8E6
:105180000CA0F88AFCF79EFEAAF80000D4F80CA048
:10519000388BFCF797FEAAF80200E7684846FCF750
:1051A00095FE786045EA0800E768FCF78BFEB88159
:1051B000E3689E74DE74BBE7882D0108082E0108A1
:1051C000282E0108492E01082DE9F04385B0044638
:1051D0000D461646DDF830801F46B8F1000F05D1A8
:1051E000134A40F2A1711348FCF7FEFDD5F8049074
:1051F00033462A8906212846009706F0DFFAA9F8E7
:1052000010009CB1E37AA47A062231462846CDF8F4
:105210000880CDE900423A4603F09AFF044628464A
:10522000FDF7F0F8204605B0BDE8F083FF23EBE77B
:10523000882D0108602E010814312DE9F04189B252
:105240000646174624204FF420729846FDF73CF995
:10525000054640B34389132B05D8144A40F2277101
:105260001348FCF7C1FD6C684046FCF72BFE20801C
:10527000BDF81800FCF726FE676060803046FCF73A
:1052800025FEA0609DF81C0040F4A040FCF71AFE2B
:10529000A081BDF82000FCF715FE0023E0812374F7
:1052A0006374A374E3742846BDE8F081882D010877
:1052B000942E01087FB50D461646044628B90C4ABF
:1052C00040F246710B48FCF78FFD638D324629464C
:1052D000029310230193238B0093E38A606AFFF704
:1052E000ABFF18B1628D636A1344E36204B070BD12
:1052F000882D0108C42E010828B9034A40F25A71CA
:105300000248FCF771BD7047882D0108EC2E01089A
:105310007FB505460C461E462AB9134A40F2C471B1
:105320001248FCF761FD2EB90F4A40F2C5711048D2
:10533000FCF75AFD2846FCF7C9FD14234EF22E0156
:1053400002462046CDE90131BDF82430002100930A
:10535000BDF82030FFF770FF044608B1FFF7CCFF1F
:10536000204604B070BD00BF882D0108142F01082D
:105370002E2F0108F7B5044617461E460D4629B9DB
:105380000F4A40F28A710F48FCF72EFD5CB1207A7B
:1053900048B1FCF7FDFD50B92846FDF733F86FF032
:1053A000030003B0F0BD304603F0F8FCF3E70090D3
:1053B00033463A4629462046FFF706FFF1E700BF8D
:1053C000882D01084C2F01082DE9F04F2DED028B9F
:1053D0008FB004460893002307910492ADF836304D
:1053E00030B96FF00F000FB0BDEC028BBDE8F08F4D
:1053F000B0F86230428E5B08934228BF1346002B00
:1054000008BF1346069305F0E9FE079B002BE8D082
:10541000237D072B03D0023B022B00F24A82049B20
:10542000D3B1B4F86430049A934206D2638B43F04C
:10543000800363834FF0FF30D5E7B4F866202D2A50
:10544000F4D8236FF2B13BB9E36E2BB9AB4A4FF4FA
:10545000AC71AB48FCF7C8FCB4F86630E66E059357
:10546000D6B9B4F86870002F00F0AE81A34A40F2BC
:105470004D21A448B046B246B14635463746FCF702
:10548000B3FC85E013B9E36E002BE5D09B4A40F2F4
:105490005B119D48DEE75646D6F800A0B046BAF14B
:1054A000000FF8D1B57A3389AD00069A05F00405EE
:1054B0002B449A4205DA914A40F2E9119348FCF7ED
:1054C00093FC3789069BDF1B7F1BB4F86850BFB283
:1054D000ADF83650002D64D0BD4205D9874A40F260
:1054E000FB118B48FCF780FC049DBDF836309D42D3
:1054F00028BF1D46BD4228BF3D465B1B7F1B9BB29C
:10550000BFB2ADF836304BB1049BAB4200F06181C5
:105510007A4A40F203217F48FCF766FC049B9D42D7
:1055200080F05781002F00F04C81B8F80890B9F155
:10553000000F00F04781A3EB0509089BB945A8BF00
:10554000B946DB071FFA89F62DD501233A463146C5
:1055500000200293089BCDE900430DF13603FFF7CD
:105560007FFD8346002800F0A181079B32464068FA
:105570005919FCF7EBF85846FDF7AEF8059B4FF0CC
:10558000000903449BB20593AF19DA464646BFB201
:10559000089B4FF0000B03F00103CDF824B00A93F1
:1055A000DFE02E46BAE7D8F804B05A46DBF800B080
:1055B000BBF1000FF9D1137B13F0C00F0ED151894D
:1055C0005368079A0B449A4208D12DB14B4A4FF4C5
:1055D0000D715148FCF708FCB146D5E70122314670
:1055E0000020FCF771FF8346002800F05F81079BD5
:1055F0002B444360C0E7049B069ADB1B9BB293429B
:1056000028BF13469BB208EE103A0A9B6BB3BBFA55
:105610008BF318EE101A38205B090293089BCDE932
:1056200000430DF13603FFF71BFD064600283CD072
:10563000438918EE102A934205D2304A40F269217C
:105640003648FCF7D1FB079B18EE102A7068D91971
:10565000FCF77CF83046FDF73FF8059B03449BB20E
:105660002E2B059360D930461DE0BDF836302BB1A6
:10567000224A4FF41D712A48FCF7B6FB012218EEAE
:10568000101A3820FCF720FF78B1079A00210B9000
:105690003A4442604FF420723820FCF715FF0B9B10
:1056A000064630BB1846FCF7ADFE638B43F0800323
:1056B0006383BAF1000F02D05046FCF7A3FEBBF1A2
:1056C000000F02D05846FDF71FFBB4F86630002BE0
:1056D0003FF4B0AE236F002B7FF4ACAEE36E002B33
:1056E0007FF4A8AE054A40F22A310E48FCF77CFB55
:1056F000A0E61946FDF712F8ACE700BF882D0108B7
:10570000782F010862300108B22F0108E42F010848
:10571000FB2F01081B3001083930010891300108C6
:10572000CF3001085B310108E36D0022314620468D
:105730003B440092FFF7DCFC06460028B5D0BBF1E5
:10574000000F3CD0099B2BB95B4A40F2AE215B486D
:10575000FCF74AFB099B1E6018EE103A09961F449D
:10576000BFB2049B9F42FFF446AF5746DA464DB1A5
:10577000D8F804B0BBF1000F2ED1B8F808301D44A2
:10578000A8F80850BDF83630A4F86830002F3CD097
:10579000B8F1000F05D1484A40F2E3214848FCF730
:1057A00023FB3946D8F80400FCF7B8FFB8F80830F6
:1057B0003A891344A8F80830C8F800A04CE08346A2
:1057C000CAE7B9462F46E3E6B9463D46B846BA466B
:1057D000DEE60027B946CAE7BBF808302B44ABF831
:1057E0000830DBF800306BB9DBF804302A46BBF830
:1057F0000A0007991844FBF7A9FFBBF80A302B44AD
:10580000ABF80A30DBF800B0B4E7B9F1000F1ED0F6
:10581000B8F1000F02D0D8F804302BB9264A40F274
:10582000E9212848FCF7E0FAD8F804301A89196809
:105830004A4492B21A8141B95A894A445A81B8F805
:1058400008309944A8F80890B6E70B46EEE7B8F19F
:10585000000FB1D1C4F86CA0E36D049A1344B4F8FE
:105860006420E365049BD21A059BA4F86420A4F885
:1058700066304BB1236F3BB9E36E2BB90E4A40F251
:1058800015311148FCF7B0FA76B1F06800283FF402
:10589000AAAD089B13F0020406D185890820FCF705
:1058A00011FBF3682843988100209CE54FF0000B22
:1058B000FBE66FF00A0096E5882D0108DD3001084F
:1058C000EE300108263101085B3101082DE9F74F60
:1058D0000D46064628B95B4A40F24E315A48FCF75D
:1058E00083FAF46E14B94FF0FF3008E055B9574809
:1058F00040F25631534AFCF777FA6FF0050003B0D7
:10590000BDE8F08F2389AB4201D80020F7E7738E02
:10591000AB420DD24B4A40F25E314D48FCF764FA7F
:1059200023892BB9474A40F25F314A48FCF75CFAB9
:1059300094F80AB04FF42072B4F808A038204FEA67
:105940008B07AAEB050107F004071FFA81F817FA85
:1059500081F189B2FCF7B8FD81460028C3D06068A8
:1059600022890389D9F804109B1A424639442B44F2
:105970009BB2FCF789FF404560D1E3689889FCF74A
:10598000A1FA10F00808C7B216BF4FF0080807F0D8
:105990003F0707F03707FB07E36848BF48F00108F7
:1059A000586848BF07F0FE07FCF790FA42462B18EC
:1059B00049463046CDF800B0FFF79AFB80460028F4
:1059C00091D06068A5EB0A05FCF786FEB6F8663054
:1059D0001FFA85F9181AA6F866006068018911FA9D
:1059E00085F189B2FCF70AFE238938469944E368B9
:1059F000A4F808909D89FCF765FAE368284398812C
:105A00006068FCF769FEB6F866301844A6F86600D0
:105A1000D8F80400FCF760FEB6F866301844A6F823
:105A200066002368C8F80030C4F80080D8F8000089
:105A300000287FF46AAFA6F8680060E74846FCF7E4
:105A4000E1FC50E7882D01087C3101089E310108F6
:105A5000C0310108CD3101082DE9F74311F00308E9
:105A600004460E4605D13B4A40F213413A48FCF742
:105A7000BBF92CB9374A40F215413848FCF7B4F964
:105A8000C6F340074FF4207238204FEA8709494691
:105A9000FCF71AFD054640B9638B4FF0FF3043F029
:105AA0008003638303B0BDE8F08343894B4505D28F
:105AB000284A40F23D412A48FCF796F929460097CA
:105AC0003246E36D2046FFF713FB05460028E3D07E
:105AD000C3689A0705D01F4A40F246412148FCF7A7
