:020000040800F2
:1000000000070020F1020008B5AD00086DAD000842
:1000100095AD00086DAD00088DAD0008F302000835
:10002000F3020008F3020008F302000879EA00086E
:10003000F3020008F3020008F3020008F3020008CC
:10004000F3020008F3020008F3020008F3020008BC
:10005000F3020008F3020008F3020008F3020008AC
:10006000F3020008F3020008F30200088DC900083B
:10007000B5C90008E1C900080DCA000839CA00085E
:1000800061CA00088DCA0008F3020008F3020008E4
:10009000F3020008F3020008F3020008F30200086C
:1000A000F3020008F3020008F3020008F30200085C
:1000B000F3020008F3020008F3020008F30200084C
:1000C000F3020008F3020008F3020008F30200083C
:1000D000F3020008F3020008F302000855F40008D8
:1000E000F3020008F3020008F3020008F30200081C
:1000F000F3020008F3020008F3020008B9CA00087E
:10010000F3020008F302000891F40008F30200086B
:10011000F302000869F40008F3020008F302000883
:10012000E5CA00080DCB000839CB000865CB0008F4
:1001300091CB00089DCE0008F3020008F3020008EE
:10014000F3020008F3020008F3020008F3020008BB
:10015000B9CB0008E5CB000811CC0008F302000879
:10016000F3020008F3020008F3020008F30200089B
:10017000F3020008F3020008F3020008F30200088B
:10018000F3020008F30200087DF40008F3020008FF
:10019000F3020008F3020008F3020008F30200086B
:1001A000F3020008F3020008F3020008F30200085B
:1001B000F3020008F3020008F3020008F30200084B
:1001C000F3020008F3020008F3020008F30200083B
:1001D000F3020008F3020008F3020008F30200082B
:1001E000F3020008F3020008F3020008F30200081B
:1001F000F3020008F3020008F3020008F30200080B
:10020000F3020008F3020008F3020008F3020008FA
:10021000F3020008F3020008F3020008F3020008EA
:10022000F3020008F3020008F3020008F3020008DA
:10023000F3020008F3020008F3020008F3020008CA
:10024000F3020008F3020008F3020008F3020008BA
:10025000F3020008F3020008F3020008F3020008AA
:10026000F3020008F3020008F3020008F30200089A
:10027000F3020008F3020008F3020008F30200088A
:10028000F3020008F3020008F3020008F30200087A
:10029000F3020008F3020008F3020008F30200086A
:1002A000F3020008F3020008F3020008F30200085A
:1002B000F3020008F3020008F3020008F30200084A
:1002C000F3020008F3020008F3020008F30200083A
:1002D000F3020008F3020008F3020008F30200082A
:1002E0005905000869AB0008FFFFFFFFFFFFFFFF94
:1002F00002E000F000F8FEE772B6374880F30888A5
:10030000364880F3098836483649086040F20000D4
:10031000CCF200004EF63471CEF200010860BFF35B
:100320004F8FBFF36F8F40F20000C0F2F0004EF627
:100330008851CEF200010860BFF34F8FBFF36F8F7B
:100340004FF00000E1EE100A4EF63C71CEF20001D3
:100350000860022080F31488BFF36F8F0EF0EEFB6D
:100360000EF028FE4FF055301F491B4A91423CBF0A
:1003700041F8040BFAE71D49184A91423CBF41F885
:10038000040BFAE71A491B4A1B4B9A423EBF51F82D
:10039000040B42F8040BF8E700201849184A914270
:1003A0003CBF41F8040BFAE70EF006FC0EF086FEA7
:1003B000144C154DAC4203DA54F8041B8847F9E796
:1003C00000F094F8114C124DAC4203DA54F8041BBF
:1003D0008847F9E70EF0EEBB00070020002300205D
:1003E0000000000808ED00E00001002000070020E8
:1003F0007820010800230020BC230020C023002017
:1004000068410020E0020008E8020008E802000855
:10041000E80200082DE9F04F2DED108AC1F80CD04C
:10042000D0F80CD0BDEC108ABDE8F08F002383F328
:1004300011882846A04700200DF05EFEFEE70DF073
:100440002BFD00DFFEE7000001F0FF01102A2BDB8F
:1004500010F0070F08D010F8013B013A8B422DD065
:1004600010F0070F42B3F6D1F0B441EA012141EA9E
:10047000014122F007047FF000070023F0E8025654
:10048000083C85EA010586EA010685FA47F5A3FAE4
:1004900087F586FA47F6A5FA87F68EB9EED1F0BC55
:1004A00001F0FF0102F0070232B110F8013B013AFE
:1004B00083EA010313B1F8D1002070470138704777
:1004C000002D06BF35460338073815F0010F07D158
:1004D000013015F4807F02BF013015F4C03F0130B8
:1004E000F0BC0138704700BF7047000038B501F01C
:1004F000E3F801F07FFA154800F048FE0EF064FAC8
:1005000005460EF0ABFA0446D8B9114B9D421AD0FD
:1005100001339D4241F2883512BF04460025012473
:1005200000200EF05BFA0CB100F092F801F034FA02
:10053000064800F003FE284600F01AF900F088F89B
:10054000F9E70025ECE7034DEAE700BFC0230020F0
:10055000010007B0C027090010B5084C04F10800DD
:100560000AF0EAFB04F134000AF0E6FB2046044AF4
:100570000449BDE810400EF0BBBF00BFC0230020FF
:10058000902F0020E904000808B501F061F8A0F1FF
:1005900020035842584108BD07B5042101900DEBD6
:1005A000010001F073F803B05DF804FB38B53023A7
:1005B00083F31188174803680BB10DF069FE00231F
:1005C000154A4FF47A7113480DF058FE002383F357
:1005D0001188124C236813B12368013B23606368C0
:1005E00013B16368013B63600D4D2B7833B96368C9
:1005F0007BB9022001F026F9322363602B78032BAC
:1006000007D163682BB9022001F01CF94FF47A730B
:10061000636038BD0C250020AD0500082C260020A5
:1006200024250020084B187003280CD8DFE800F0C0
:1006300008050208022001F0F7B8022001F0E4B832
:10064000024B00225A607047242500202C260020EF
:10065000F8B5414B414A1C46196801317AD0043340
:100660009342F9D162683E4B9A4273D93D4B9B68E5
:1006700003F1006303F500339A426BD2002001F0CE
:1006800035F80220FFF7CEFF374B0021D3F8E820E2
:10069000C3F8E810D3F81021C3F81011D3F81021D3
:1006A000D3F8EC20C3F8EC10D3F81421C3F81411DC
:1006B000D3F81421D3F8F020C3F8F010D3F81821A0
:1006C000C3F81811D3F8183172B64FF0E023C3F80D
:1006D000084DD4E90004BFF34F8FBFF36F8F234A57
:1006E000C2F88410BFF34F8F536923F480335361F2
:1006F000BFF34F8FD2F8803043F6E076C3F3C905DD
:10070000C3F34E335B0103EA060C29464CEA8177BA
:100710000139C2F87472F9D2203B13F1200FF2D1E3
:10072000BFF34F8FBFF36F8FBFF34F8FBFF36F8F49
:10073000536923F4003353610023C2F85032BFF3EE
:100740004F8FBFF36F8F302383F31188854680F37B
:1007500008882047F8BD00BF0000020820000208FA
:10076000FFFF0108002300200044025800ED00E0D4
:100770002DE9F04F95B0DFF8D8922022FF210290AA
:1007800004A8D9F8085001F0B1F8A84A1378A3B921
:100790000121A74811700360302383F31188036897
:1007A0000BB10DF075FD0023A24A4FF47A71A048F9
:1007B0000DF064FD002383F31188029B13B19E4B5F
:1007C000029A1A609D4A1378032B03D000231370FA
:1007D000994A53604FF0000B029C5E46DA46CDF812
:1007E00004B0012001F020F824B1934B1B68002BCA
:1007F00000F02882002000F02BFFB0F10008F3DBAE
:10080000012001F001F8A8F121031F2BE9D801A272
:1008100052F823F095080008B10800083F090008C5
:10082000E3070008E3070008E3070008C909000818
:10083000BB0B0008AD0A0008090B00082F0B0008CD
:10084000550B0008E3070008670B00088B0B000836
:10085000030C00081D090008E30700084B0C000802
:10086000A10800081D090008E3070008090B00089B
:10087000E3070008E3070008E3070008E3070008B0
:10088000E3070008E3070008E3070008E3070008A0
:100890003F0900080220FFF777FE002840F0FF81A3
:1008A000029B02216648BBF1000F08BF1C4640E0D6
:1008B0004FF47A7000F0CCFE071EF1DB0220FFF748
:1008C00063FE0028ECD0013F052F00F2EA81DFE84B
:1008D00007F003070A0D10330520FFF75DFE14E053
:1008E000D9F80000F9E7D9F80400F6E7D9F80800CC
:1008F000F3E74FF01C08404608F1040800F0F8FE4A
:10090000FFF74AFEB8F12C0FF5D10120019B4FF003
:10091000000A00FA07F71F43FBB2019301F032F817
:100920002EB1019B03F00B030B2B08BF0024022107
:10093000444800F0ABFE54E7D9F80C00CDE7002E98
:10094000AED0019B03F00B030B2BA9D10220FFF7C4
:100950001BFE07460028A3D00120002600F0C6FE9B
:100960000220FFF75FFE1FFA86FB584600F0CEFE1E
:10097000044688B1A8F1400258460136514251411F
:1009800000F0D4FE0028EED1BB46044602212E48DA
:100990003E4600F07BFE24E725460120FFF742FE9D
:1009A000D9F80830AB4207D9284600F0A1FE013043
:1009B00040F07A810435F3E70025204BBB463E46E4
:1009C0001D701D4B5D60A9E7002E3FF469AF019BD0
:1009D00003F00B030B2B7FF463AF0220FFF722FE23
:1009E000322000F035FEB0F10008FFF659AF18F0E4
:1009F00003077FF455AF08EB0503D9F808209342AD
:100A00003FF64EAFB8F5807F3FF74AAF0F4BB84582
:100A100003931FDD4FF47A7000F01AFE0028FFF6F2
:100A20003FAF039B013703F8010BF0E728260020B6
:100A30000C250020AD0500082C26002024250020D0
:100A4000C0060108B8060108BC06010828250020D8
:100A500000230020C820FFF797FD074600283FF439
:100A60001FAF1F2D11D8C5F1200204AB25F00300E4
:100A70008F494245184428BF4246039200F004FFC4
:100A8000039AFF218A4800F031FF4FEAA803C8F318
:100A9000870287492846039300F030FF0646002866
:100AA0003FF474AF039B05EB830537E70220FFF7A4
:100AB0006BFD00283FF4F4AE00F056FE00283FF432
:100AC000EFAE0027B846D9F80830BB4218D91F2F1F
:100AD00011D8049B01330ED027F0030314AA13444A
:100AE00053F8403C0C93404604220CA9043701F013
:100AF00019F88046E7E7384600F0FAFD0C90F2E777
:100B00004046FFF749FD09E7002364210CA80C9338
:100B100000F0B2FD00287FF4C3AE0220FFF734FDE1
:100B200000283FF4BDAE0C9800F014FEE9E7002366
:100B300064210CA80C9300F09FFD00287FF4B0AE58
:100B40000220FFF721FD00283FF4AAAE0C9800F028
:100B500003FED6E70220FFF717FD00283FF4A0AE02
:100B600000F012FECDE70220FFF70EFD00283FF453
:100B700097AE0CA9142000F00DFE0390FFF70CFDBA
:100B800003990CA800F082FDC8E60220FFF7FCFCE8
:100B900000283FF485AE474B0CAF03F1100C1868EA
:100BA000083353F8041C3A46634503C21746F6D18E
:100BB0001020FFF7F1FC1021E3E7322000F048FDA0
:100BC000071EFFF66DAEBB077FF46AAE07EB0A03A4
:100BD000D9F8082093423FF663AE0220FFF7D4FC19
:100BE00000283FF45DAE27F003075744BA453FF4B1
:100BF00095AE50460AF1040A00F07AFDFFF7CCFCEE
:100C0000F4E74FF47A70FFF7BFFC00283FF448AEDA
:100C100000F0AAFD002849D0049B01330BD0082224
:100C200004A9002000F06AFE00283FD02022FF2106
:100C300004A800F05BFE2048022100F027FD1F48B9
:100C40000DF060FA15B0BDE8F08F002E3FF428AE2D
:100C5000019B03F00B030B2B7FF422AE00236421D6
:100C60000CA80C9300F008FD074600287FF418AE8E
:100C70000220FFF789FC804600283FF411AE0221D4
:100C80000D4800F003FD41F288300DF03BFA0C985E
:100C900000F096FE46463C4600F074FEA1E506468E
:100CA0003CE64FF0000AFBE5BB466FE637466DE6D3
:100CB00028250020A4060108B8060108A086010026
:100CC000064A00230261064A0362426140F2DC5296
:100CD0008286044AC2631846704700BF017F00083D
:100CE000F90C0008062A6D73006806F0D9BC0000F4
:100CF000006806F027BE00001FB50C464CF25032CB
:100D000001A90A480CF012FD68B934B1628901A842
:100D100061680CF01DFB2468F7E701A80CF074FA79
:100D2000204604B010BD6FF00200FAE73430002016
:100D300038B50A4B04460A4D002908BF1D4628460F
:100D400000F0CCFD29460246204600F05FFF204619
:100D50002E220449BDE8384000F058BFD6060108ED
:100D6000C4060108F106010830B585B00D46002221
:100D70000E4801A90CF0F2FCA8B94FF4C172BDF8FD
:100D8000081001F0A9FB0446286034B1628901A86B
:100D900061680CF0F3FA2468F7E701A80CF08EFA0A
:100DA000012005B030BD0020FBE700BF343000203B
:100DB00000212DE9F04104469EB0084609F0A8FC48
:100DC000642000F051FD21684F48363101F026F8CB
:100DD000606A48BB4D4800F0E5FF01F0C1F807909C
:100DE0004B4800F0DFFF01F0BBF80890494800F0E5
:100DF000D9FF01F0B5F8099023680AA946483633AF
:100E00000A930CF085FC454B09AA07A920680293B8
:100E1000434B01930023009308AB08F087FA024686
:100E200070B1404809F0C8FF01F09AF80790E06AF5
:100E300001F096F80990A06A01F092F80890DBE7BB
:100E400039490590206808F093FA059A37492068D7
:100E500008F08EFA364916A82F4E09F0B9FE16A8EA
:100E600009F0BEFE4FF0FF3301220CA91CA8314F40
:100E70000CF04AFE022311A92F481A46DFF8C4805D
:100E80000CF042FE03200CF053FE4FF0FF300CF04C
:100E900087FEC207054611D530460CF077FC216865
:100EA00091F83D30C3F38003984207D030B3234814
:100EB00009F0F2FB2146224809F0EEFBAB07E4D52E
:100EC00040F606050BA92068FFF74EFF0028DCD08E
:100ED0000B9B002BF6D05B68988901F03DF8B0F5CC
:100EE000006F01D0A84205D121680B98CB689847C4
:100EF0000028E7D00B9801F0A5FAE3E7384609F09F
:100F0000CBFB21464046D7E72007010832070108FE
:100F10003B07010844070108343000207DA6000883
:100F2000C10C000852070108F91F00083922000807
:100F3000404B4C00C92200084C3000207D220008A4
:100F4000E90C0008F10C000808B5FFF731FF0000BC
:100F50002DE9F74F8046009100F0C0FC00F580605D
:100F60000DF036FC054600284AD00446C14699F9E2
:100F700000B0BBF1000F41D0A9EB0803009A9342E7
:100F80003CD2BBF17B0F09F1010703D004F801BB90
:100F9000B946ECE77D2138460EF016FB06460028E0
:100FA000F4D0A0EB09024FF0030BDFF85C9002F1E4
:100FB000FF3AD9F800301846019300F08FFC5045F5
:100FC000019B11D152463946184600F067FC58B9CA
:100FD000D9F80470204639460EF004FB384600F07C
:100FE0007DFC771C0444D3E7BBF1010B09F1080930
:100FF000DFD14FF07B0304F8013BC9E700232370E6
:10100000284603B0BDE8F08F102300202DE9F341FE
:101010004FF480600E46DFF84C800DF0D9FB04469B
:101020000546642301220DF10701304600F024FE3D
:10103000012810D19DF8073005F8013B2F1B032F25
:10104000EFDD04224146281F0EF070FA18B140F27D
:10105000FE339F42E5DD002320462B7002B0BDE841
:10106000F08100BF1B0701082DE9FF410446202045
:1010700009F0F4FD054610B1002100F08FFD50226B
:1010800027492846274FDFF8A88000F0AFFE14213B
:10109000284600F049FE1421284600F051FE94F83D
:1010A000303006467BB1002384F83030BFF34F8FD9
:1010B0001D491E4BCA6802F4E0621343CB60BFF3C4
:1010C0004F8F00BFFDE794F831203AB14FF47A70AA
:1010D00084F8313000F0C8FBFFF7BAFA002EDAD0FE
:1010E000082009F0BBFD3C2241463B46C0E90046D2
:1010F000009040F6F8100DF0AFFB40F2C22204F170
:10110000080103A800F024FD206A20B1C36B23620C
:101110000CF0B0FFF8E703A800F024FDBBE700BF28
:1011200070070108A915000800ED00E00400FA05A9
:101130007807010808B5FFF797FF000013B50446CC
:1011400000F0A4FE642000F08FFB0CF0CBFA4C20E2
:1011500009F084FD094B20603C22094940F6F81053
:1011600000940DF079FB074B3C220749606040F684
:10117000F81000940DF070FB02B010BD490F00088C
:1011800084070108351100088C0701084FF000534F
:10119000054A1968914206D15A6822B142629A689A
:1011A000C262DB68836270479AAD44C50EB477B5FE
:1011B00007AD044600F1340140F2F92255F8046B02
:1011C000684600F0C5FC4FF480712B46324604F1AE
:1011D0004C00019509F0C8FD684600F0C3FC03B05F
:1011E000BDE8704003B070472DE9F04F8046ADF583
:1011F0000D7D0E46144600255CB98B494046FFF72D
:10120000D5FF002130460DF50D7DBDE8F04FFFF70D
:101210008FBD642301220CA9304600F02DFD01286A
:101220000BD082494046FFF7C1FF00213046FFF74F
:101230007FFD0DF50D7DBDE8F08F9DF93030013C4F
:101240000D2B04D1022D0CBF03250125D4E70A2B59
:10125000D1D105F0FD07012FCDD10135EDB2042D1F
:10126000CAD11F2C03D9724B9B68A34201D271498A
:10127000C4E7002570494046A946FFF797FF384666
:1012800000F034FA284600F041FA0746002871D0F1
:101290000021284600F04AFA824600286AD0B94464
:1012A0000A2000F0E1FA01354C45EBD84FF0000B75
:1012B00004AB24F0030920225D46FF21184600F00C
:1012C00015FB0090BAF1000F70D04D4558D2A9EB34
:1012D000050242F210730CA93046B2F5007F28BF18
:1012E0004FF40072019200F0C7FC071E5EDD17F09C
:1012F00003010ED0019A97420BD2C1F104020CA94E
:1013000042F210733046394400F0B6FC0028C8BFE2
:101310003F18BB074AD11F2D10D8C5F12002009BF2
:101320000CA9BA4203EB050028BF3A46019200F02F
:10133000ABFA019AFF210CA800F0D8FAC7F3870294
:101340000CA9284600F0DAFA80B33D4464270A224B
:101350006F43B7FBF9F7FFB2B7FBF2F302FB13736E
:10136000DBB253B9BB4509D03A4634494046FFF792
:101370001DFF03E04FF0000A98E75F46BB46A1E778
:10138000A4EB090414F0FF0408D042F210732246C3
:1013900003A9304600F070FCA04207D14D4505D1AD
:1013A00015F01F0415D100F0DFF918BB0024002050
:1013B00000F09CF94CBB1D494046FFF7F7FE214663
:1013C0003046FFF7B5FC41221D49304600F01EFCB7
:1013D0002FE74FF40072FF210CA800F087FAC4F148
:1013E00020020CA92846C2F3870200F087FA0028E1
:1013F000D9D1DBE7082204A9002000F07FFA0028F9
:10140000D4D000F0B1F90446D1E701240D4940469B
:1014100088F83140FFF7CAFE21463046FFF788FCC6
:1014200066220949D1E700BF98070108B5070108FE
:1014300000230020D5070108F0070108FC07010878
:101440000A0801084C0801085B080108F0B585B0DE
:101450000C460646FFF7DAFD07224949054600F02B
:101460001DFAB0BB474928460EF0D8F8074628B900
:10147000454928460EF0D2F8074628B34349284686
:101480000EF0CCF820B9424928460EF0C7F820B13A
:1014900019224049204600F0B9FB07F111000EF077
:1014A0002DF8214602463046FFF79EFE28460DF0F5
:1014B000CFF9002C52D0204600F084FB204605B026
:1014C000BDE8F04009F0D0BB01462046FFF730FCF4
:1014D000ECE701212046FFF72BFC1B222E49284672
:1014E00000F0DCF9A8B940F2712206F1340103A83A
:1014F00000F02EFB06F14C010846019100F0EEF9D8
:1015000001990246204600F081FB03A800F02AFB67
:10151000CCE70B222149284600F0C0F910B901237D
:1015200086F83030002303A91D48039309F08AFB95
:1015300096F8303007469BB148221A49204600F001
:1015400065FB28460DF084F92CB1204600F03AFBEB
:10155000204609F089FB384609F07EFB05B0F0BD56
:101560000399FFF7F5FC064600F0B8F9024631464C
:10157000204600F04BFB304609F076FBE1E700BF68
:10158000C4080108CC080108DE080108F0080108B9
:10159000070901081E090108380901085409010852
:1015A000600901086B09010873B50446D0E9000120
:1015B000FFF74CFF25680A4B2046DE6809F054FB14
:1015C00040F29B2205F1080101A800F0C1FA2B6A44
:1015D00001A8F3632E6200F0C5FA02B070BD00BF2F
:1015E000903D00202DE9F84F4FF47A7306460D46E2
:1015F000002402FB03F7DFF85080DFF8509098F9E1
:1016000000305FFA84FA5A1C01D0A34210D159F875
:1016100024002A4631460368D3F820B03B46D84719
:10162000854205D1074B012083F800A0BDE8F88F63
:101630000134032CE3D14FF4FA700CF063FD002069
:10164000F4E700BF78260020282300202C23002068
:10165000002307B5024601210DF107008DF8073080
:10166000FFF7C0FF20B19DF8070003B05DF804FB51
:101670004FF0FF30F9E700000A46042108B5FFF7F4
:10168000B1FF80F00100C0B2404208BD074B0A46DE
:1016900030B41978064B53F82140014623682046A0
:1016A000DD69044BAC4630BC604700BF78260020A3
:1016B0002C230020A086010070B50A4E00240A4D9C
:1016C0000CF010FF308028683388834208D90CF072
:1016D00005FF2B6804440133B4F5003F2B60F2D3BF
:1016E00070BD00BF7A260020342600200CF0D4BF45
:1016F00000F1006000F500300068704700F1006004
:10170000920000F500300CF049BF0000054B1A684C
:10171000054B1B889B1A834202D910440CF0DEBE95
:1017200000207047342600207A26002038B5044671
:10173000074D29B128682044BDE838400CF0E6BECA
:10174000286820440CF0D0FE0028F3D038BD00BF3C
:10175000342600200020704700F1FF5000F58F1064
:10176000D0F8000870470000064991F8243033B1E2
:1017700000230822086A81F82430FFF7BFBF012048
:10178000704700BF38260020014B1868704700BF23
:101790000010005C194B01380322084470B51D6825
:1017A000174BC5F30B042D0C1E88A6420BD15C68A9
:1017B0000A46013C824213460FD214F9016F4EB122
:1017C00002F8016BF6E7013A03F10803ECD181421C
:1017D0000B4602D22C2203F8012B0424094A168856
:1017E000AE4204D1984284BF967803F8016B013C65
:1017F00002F10402F3D1581A70BD00BF0010005C62
:1018000038230020180A0108022804D1054B4FF4A0
:1018100000129A6170470128FCD1024B4FF48012EC
:10182000F7E700BF00100258022803D1044B202222
:101830009A6170470128FCD1014B1022F8E700BFE4
:1018400000100258022805D1064A536983F020038C
:10185000536170470128FCD1024A536983F0100399
:10186000F6E700BF0010025870B504464FF47A76D0
:101870004CB1412C254628BF412506FB05F0641BD1
:101880000CF040FCF4E770BD002310B5934203D088
:10189000CC5CC4540133F9E710BD0000013810B529
:1018A00010F9013F3BB191F900409C4203D11AB1BC
:1018B0000131013AF4E71AB191F90020981A10BDEC
:1018C0001046FCE70138013910F9013F11F9012FE9
:1018D0000BB19342F8D0981A7047000003460246B5
:1018E000D01A12F9011B0029FAD1704702440346AD
:1018F000934202D003F8011BFAE770472DE9F84341
:101900001F4D14460746884695F8242052BBDFF841
:1019100070909CB395F824302BB92022FF214846C3
:101920002F62FFF7E3FF95F824004146C0F108025B
:1019300005EB8000A24228BF2246D6B29200FFF7F4
:10194000A3FF95F82430A41B17441E449044E4B22E
:10195000F6B2082E85F82460DBD1FFF705FF0028DA
:10196000D7D108E02B6A03EB82038342CFD0FFF785
:10197000FBFE0028CBD10020BDE8F8830120FBE767
:1019800038260020024B1A78024B1A70704700BFAD
:10199000782600202823002070B54FF4E133064E4E
:1019A0000324064D3360314655F8040B0CF086F8DD
:1019B000013CF8D170BD00BF602600202C23002020
:1019C000094B1822002110B504461846FFF78EFF78
:1019D000064A074B01461278046053F82200BDE81E
:1019E00010400CF06BB800BF602600207826002065
:1019F0002C2300202DE9F04771B6464B01201D68CD
:101A0000454BB3F8008000231A4619460BF0A8F99D
:101A1000044680200CF0E0FE0746002862D0002C2F
:101A200060D03E4EADB24FF0800A7369284643F055
:101A3000C0637361D6F8143143F0C063C6F8143143
:101A40000CF04CFD05EB080200FB05F34FF4D06CE5
:101A500050434FF03D0E984233D93269520144D47D
:101A6000D6F81021510140D4216803F100628A6048
:101A70002268D7602268C2F804A02268C2F800C0B9
:101A8000D4F80090D9F8002042F00102C9F80020F3
:101A9000D4F80090D9F8002022F01E02C9F80020E6
:101AA000D4F80090D9F80020D207FBD494F80C9019
:101AB000803361680EFA09F20A60CCE700200CF06E
:101AC000EBFD20460BF08CF938460CF0C1FE134BB1
:101AD0005A6942F0C0625A61D3F8142142F0C062E0
:101AE000C3F8142161B6BDE8F0870D4B9A6A42F441
:101AF00000729A629A6A42F400429A6261B60026C3
:101B000001200CF0C9FDB045D8D9A81901360CF058
:101B1000FDFCF8E7342600207A2600200020005241
:101B200000ED00E030B50A44084D91420DD011F8A7
:101B3000013B5840082340F30004013B2C4013F0C4
:101B4000FF0384EA5000F6D1EFE730BD2083B8ED03
:101B500010B50B68044608469B68216098472046EC
:101B600010BD000010B5044600680368DB689847A4
:101B7000204610BD1FB504464FF0FF3310462170BC
:101B80006261A36139B9042301220621009303ABEA
:101B9000039208F007FB204604B010BD38B50D1EB7
:101BA00004464FF000024FF0020014BF0221012151
:101BB00008F062F9294602462046FFF7DBFF20467F
:101BC00038BD000010B504464069421C01D007F042
:101BD000BDFFA069431C01D007F0B8FF204610BD2F
:101BE0001FB54069431C0ED00123042240F6FF714B
:101BF000039303AB009208F0D5FA013018BF01201F
:101C000005B05DF804FB0020FAE700004069431CC2
:101C100002D0202308F0F2B87047000010B58469A4
:101C200088B00023621CCDE9023302D14469621CF2
:101C300020D008AA630904F01F0002EB83030122ED
:101C4000824043F8182C4FF47A720023B1FBF2F073
:101C500002FB1011514304AACDE904030691601C54
:101C6000009202A91A4608F041F9431E5842584111
:101C700008B010BD1846FBE72DE9F0410F468CB0C7
:101C8000194604469046FFF7C9FF30B90DF048FCED
:101C90000B2303604FF0FF3542E0A569102304AE2B
:101CA000102202936B1C4FF00001304608BF65699B
:101CB000FFF71CFE02AB424628463946CDE90063D9
:101CC000082307F0C5FF051E24DD221D08AF33469B
:101CD000083203CBBB4242F8080C42F8041C1E46F3
:101CE000F5D1A36901331BD0102303AA39466069DB
:101CF000039308F053FA0028CCD1636823F0FF0265
:101D0000089B23F0FF039A420AD1A268099B9A42DA
:101D100006D1BFE723781BB9237F0BB105B925771F
:101D200028460CB0BDE8F08108B54069431C05D0D9
:101D300007F064FFB0FA80F0400908BD0020FCE71E
:101D40007FB543690446013303D10024204604B023
:101D500070BDFFF763FF0028F7D0102302AA211DF2
:101D60006069029307F014FE431C0546EDD0202065
:101D700008F074FF04460028E8D0002301264561DE
:101D8000062103704FF0FF3332460396836104232C
:101D90002846009303AB08F005FA20462677FFF7A4
:101DA0001FFFD3E7002307B5014601AA02200193D4
:101DB00008F0D6FB019800F0D3F803B05DF804FBFF
:101DC00070B51646184610220D4600211C46FFF736
:101DD0008DFD304600F0C0F8022360802846637015
:101DE000FFF7E0FF00F0BCF8606070BD1FB543690D
:101DF000044601330FD06B46FFF7E2FF2046FFF7A2
:101E0000EFFE10226946606907F066FEB0FA80F0C6
:101E1000400904B010BD0020FBE7000070B586B09B
:101E200005460C46FFF75AFD1128024621D12946E6
:101E300001A80DF0DFFB651E002305340E4E6A4637
:101E40000D4901A88DF8153000930DF025FC80B1E7
:101E5000102200210DF022FDFF280AD805F8010FFD
:101E60006A46314600200DF017FCAC42EFD101204C
:101E700000E0002006B070BDDC0801080146024801
:101E800008B508F099FF00BF280A0108F8B501203D
:101E9000002301334000DBB20E2BFAD10CF0D0FC52
:101EA00000284CD0264A0623C2F89830254BC2F8A9
:101EB0009C00C2F8A0300523C2F89430536A43F462
:101EC000803353620023C2F88430BFF34F8FD2F8BF
:101ED000803043F6E075C3F3C904C3F34E335B01AE
:101EE00003EA0507214647EA81760139C2F87462A0
:101EF000F9D2203B13F1200FF2D1BFF34F8FBFF384
:101F00006F8F114B00F140021860104B1A6000F106
:101F100060020F4B1A6000F254625A6000F64842A9
:101F20009A6000F591521C32DA6000F5C15300F559
:101F3000F150084A10330430136050600120F8BD9E
:101F400000ED00E01B000C038C26002098260020EA
:101F50007C2600209026002040BA80B27047000006
:101F600000BA70476FF00B007047000010B50446D0
:101F700018B940F29930FFF781FF94F83D3003F033
:101F80000502052A08D1226832B19B0604D52046F5
:101F9000BDE8104006F0ECB910BD000073B5044672
:101FA00015460E4619B94FF4EE70FFF767FF236828
:101FB00032689A4201D1002019E02B6001A928461D
:101FC000019200F0E7FF01A9284604F08DFA01AA6A
:101FD0002946204604F0BAFB3368012120462360DD
:101FE000FFF7C4FFA3690BB120469847012002B058
:101FF00070BD00007047000010B5044608F078FC82
:10200000014B1C6010BD00BFA026002010B5044687
:1020100008F06EFC54B1064B186830B190F84030AF
:102020000133DBB2A34218BF002010BD2046FCE7FD
:10203000A026002010B5044608F05AFC0CB9002078
:1020400010BDA01C0DF05AFA10F0FF0303D194F953
:102050000220302AF3D10A4A10680028EFD090F805
:1020600040209A42EBD194F9002090F93E309A42F8
:10207000E5D194F9012090F93F309A42DFD1DFE7B2
:10208000A02600200B4B2DE9F0410E4617461C6898
:10209000054618B940F24770FFF7F0FE0CB9BDE8ED
:1020A000F081D4E900383A463146284644469847FC
:1020B000F4E700BF9C2600202DE9F04387B0994645
:1020C0000E469046054608F013FC2C4B002E08BF28
:1020D0001E46B8F1000F08BF9846B9F1000F08BFBF
:1020E00099463368002B45D102AF314628463A461F
:1020F000FFF754FF044688B30397102401276A684A
:10210000D8F8003093421EBF009244F040046B6048
:10211000AA68D9F8003018BFCDF810D093421FD06C
:10212000AB6001AB44F02004019205935FB90DF15F
:102130000808314628464246FFF730FFA8B144F070
:102140001004CDF80C8044F0800487B103AA214626
:102150002846FFF797FF07B0BDE8F0830127CEE7D9
:10216000002FE4D0002CF6D0EDE7002CEBD144F4A6
:102170008064EBE700273C46C1E700BF940A0108F2
:102180002DE9F843DDF82490984604460E4617469C
:1021900008F0AEFB254B1D683DB1002540F22D1027
:1021A000FFF76CFE2846BDE8F883002CFAD0B9F1A1
:1021B000000FF7D01E4B1022294604F12400002EF8
:1021C00008BF1E46002F08BF1F46B8F1000F08BF0A
:1021D0009846184BA5602361A58684F83D50C4E954
:1021E0000055FFF783FB089B20463A4623623146A1
:1021F0000A9B6564E360434684F84050A564C4E9E3
:102200000655FFF759FF2046C8470028CAD194F861
:102210003D309B0602D5204606F0F0F80022012151
:1022200020462546FFF72EFFBCE700BFA026002072
:10223000940A0108651F00081FB5044608F058FB02
:10224000D4B194F83D30DA0716D443F0010384F892
:102250003D30A3690BB1204698470123204601AACF
:1022600008218DF80430FFF70DFF0321204604B04C
:10227000BDE81040FFF77ABE04B010BD1FB504469C
:1022800008F036FBECB194F83D305A0719D443F00E
:102290000403204684F83D3005F0E6F8204604F0BB
:1022A000DDFA03212046FFF761FEE3690BB120460A
:1022B0009847012301AA042120468DF80430FFF736
:1022C000E1FE04B010BD00001FB5044608F010FB8D
:1022D000CCB194F83D305A0715D523F004032046BD
:1022E00084F83D3004F0F8FA204604F075F9E3690B
:1022F0000BB120469847002301AA042120468DF8FF
:102300000430FFF7BFFE04B010BD000008B508F0B0
:1023100017FC084B00221A7008F01AFC064B1868CC
:1023200000B908BD436F1BB1BDE8084000F01ABDFD
:10233000C068F5E7A4260020A826002038B550B9CB
:102340004FF4F170FFF79AFD01201FE0002AFBD047
:102350004268511A14E0B1F5803FF5D2A9B1038962
:102360008CB213FA81F39BB29C42EDD890F90C50D9
:10237000002DEBDA4268511A00F110029142E3D3CA
:1023800042894160144403814481002038BD00002B
:1023900022F04003012B70B506460D46144603D0CB
:1023A0004FF4A570FFF76AFD0D2008F07DFE40B1E7
:1023B00000230581458143730473C0E9003601237E
:1023C000C38170BD033020F0030070B50E18BDF856
:1023D0001450049CAE420DD804B1044418460023A6
:1023E000C0E9003402230181418143730123027358
:1023F000C38170BD0020FCE70022FFF79FBF0000F3
:1024000010B528B940F24E20FFF738FD012010E04A
:10241000B1F5803FFAD259B18AB243899A42F5D8D0
:102420009B1A446843812144038941609B1A0381BC
:10243000002010BD0B1E02DA5942FFF7E1BF012256
:10244000FFF77CBFF8B5044630B9254640F2DE20E0
:10245000FFF714FD2846F8BD002508F071FBA37BAB
:1024600007461BB940F2F320FFF708FDA67B38466C
:10247000013EF6B2A67308F06BFB002EEAD1637B37
:1024800026689B070ED523691BB940F20130FFF780
:10249000F5FC2369204698470135EDB2002ED9D0CE
:1024A0003446DAE7237B03F00F03022B04D12146E5
:1024B0000E2008F005FEEFE7012B02D121460D208A
:1024C000F7E71BB9204608F0AFFDE5E740F2113011
:1024D000FFF7D4FCE0E70000B2F5C17F2DE9F84F2B
:1024E00004460E4611D008D822F04003012B07D134
:1024F0000020BDE8F84FFFF74BBFB2F5207F56D064
:1025000040F22710FFF7BAFC20E0002584B2DFF884
:10251000E0902F46A8460E20AA4608F0C5FD0546C5
:10252000D0B9304C08F00CFB012326782370F6B2AA
:1025300008F00EFB4EB929462B4808F0ADF820B143
:1025400008F0FEFA257008F003FB0FB9002729E018
:102550003846FFF777FFF9E7E31C0444C0F8008032
:1025600023F0030313340681C3F5807B24F00304B6
:10257000C0F80C901FFA8BFB4460B34528BFB346EC
:10258000B3F5807FA0F80AB003D14FF48170FFF754
:1025900075FC57B1CAF80050A6EB0B060024B6B282
:1025A000002EB8D13846BDE8F88F2F46F4E7CB1C93
:1025B000033023F0030320F003001844103083425B
:1025C000C4D808F01DFD07460028EBD004440023C2
:1025D000068113340360054B24F003044681C36075
:1025E0004460DFE7A42600200D23000880000100DE
:1025F0008200010070B50D46044618B94FF4CC7046
:10260000FFF73CFC2389AB4232D9EE1A6389AB4217
:1026100017D3227B120723D1AB4221D0637B9B07C8
:102620001ED461682046091B294408F0E7FCA8B9BC
:1026300040F2BD10FFF722FC40F2BF10FFF71EFC76
:102640000EE0ED1A23893344ADB223812468002CB7
:10265000DCD140F2AF10FFF711FCD7E78442EBD199
:1026600020686581258108B1FFF7ECFE0023236017
:1026700070BD0000F8B50D460446002685B17CB15A
:102680006189A94208D827686D1A20462660ADB234
:102690003C46FFF7D7FEF1E729462046FFF7B0FE9C
:1026A0002046F8BD0346002290B2013203B97047BC
:1026B0001B68F9E710B5044670B108F041FAA37B36
:1026C0000133A37308F044FAA37B2BB94FF4517084
:1026D000BDE81040FFF7D2BB10BD000038B50D4675
:1026E000044600B121B938BD29890B442381144621
:1026F00022682389002AF7D162899A4209D04FF4CF
:102700005970FFF7BBFB23681BB140F26530FFF740
:10271000B5FB2A892389256013442381E3E7000060
:1027200010B50C46FFF7DAFF2046BDE81040FFF772
:10273000C1BF00002DE9F8430546164698460C46F1
:1027400000293ED00B8993423BD3002839D002891F
:1027500008EB06039A4234DB4FF000096F89628967
:10276000A7EB08076868A2EB09026168404497423A
:10277000494428BF1746B74228BF37463A46B844AF
:10278000FFF782F86B89F01BB944434586B203D248
:1027900040F2F730FFF772FB63894B4503D24FF4E9
:1027A0007E70FFF76BFB63894B4504D8246804B93E
:1027B0003EB94FF000096B89434521D12D68EDB931
:1027C000C6B16FF00F0010E0B046628923899A42CB
:1027D00001D123685BB92DB16A892B899A4201D155
:1027E0002B6823B9002EB9D13046BDE8F8836FF0CD
:1027F0000500FAE7002CE7D12046F6E74FF0000885
:10280000002CE2D1E8E7000019B100230A89FFF7A4
:1028100091BF6FF00F0070472DE9F0410F469046D1
:10282000054618B321B30026B8F1000F00D015B942
:102830003046BDE8F0816C892BB1A34203D31B1B4A
:102840009BB22D68F0E7E41A6968B819A4B219447C
:10285000444528BF444622462644A8EB0404FFF71B
:1028600013F8B6B200231FFA84F8EAE70646DFE75A
:102870000E46DDE738B515460A462989FFF72CFED6
:10288000044638B12946FFF7BFFF18B140F2435064
:10289000FFF7F4FA204638BDF0B5124C4FF48040F3
:1028A0004FF6FF76238801330F4D04229BB2B342CB
:1028B00008BF4FF4404355F8041B096831B9013A89
:1028C00012F0FF02F7D11846238007E0CF8A9F421B
:1028D00005D1013880B20028E5D12380F0BDC96858
:1028E000ECE700BF54230020400A010808B507F0B8
:1028F000C7FF6FEA8040024B6FEA9040188008BD26
:102900005423002010B5037D0446012B02D1D420AE
:10291000FFF7B4FA21460120BDE8104008F0D0BB13
:1029200010B5044618B94FF49470FFF7A7FA07F0F2
:10293000DFFF638B9B050FD4E36F6BB15A7F0132CE
:102940005A77E36F5B7F1BB940F22D10FFF796FAC1
:10295000638B43F40073638310BD000010B504461D
:1029600018B940F23F10FFF789FA07F0C1FF638BF7
:102970009B050FD5E36F6BB15B7F1BB940F2431032
:10298000FFF77CFAE26F537F013B5377638B23F4AD
:102990000073638310BD000010B5044618B94FF4EE
:1029A000CE70FFF76BFA237D042B11D0072B1BD0C1
:1029B000032B0BD1204602F06FFE70B92046FFF7C3
:1029C000CDFF05232046237502F08EFF002010BDA9
:1029D000204602F061FE0028F3D0431CF7D1638B40
:1029E00043F008036383F1E7204602F055FE002818
:1029F000F3D10923E6E70000F8B50E460546144674
:102A000007F076FF1B4B002E08BF1E4645B32B7DFB
:102A10004BBB34B9FFF740FF044650B96FF00100DB
:102A200012E0154951F8042B126872B90133042BD6
:102A3000F8D1336803B12B60104BEC821A681D602B
:102A4000EA6003F0E7F90020F8BDD08AA04205D182
:102A500017685FB1306848B1874207D0D268E4E7B1
:102A60006FF00F00F0E76FF00500EDE76FF0070083
:102A7000EAE700BF940A0108400A0108B0260020D6
:102A800038B50C46054607F033FF1CB194F84040BA
:102A90000134E4B22C7238BDF8B505460E4617462F
:102AA00007F026FF002D4AD02B7D002B4BD10220B2
:102AB00008F0FAFA0446002849D02B690361EB8A32
:102AC000C382012303756B7D43756B7A43722B7A46
:102AD0000372EB7AC372AB7A83722B680360EB8A62
:102AE0003BB11C4A1368AB4221D1EB681360002351
:102AF000EB602846FFF706FF174BA36100236377BF
:102B0000237D012B03D04FF46570FFF7B7F9134B0A
:102B1000012E1A6838BF01261C602677E26003F098
:102B200079F9002307B13B702046F8BD1346002B0E
:102B3000DDD0DA68AA42F9D1EA68DA60D7E72C4634
:102B40006FF00F03EEE76FF00E030024EAE74FF09B
:102B5000FF33E7E7B0260020452F0008B426002009
:102B6000F8B5044618B940F2AA30FFF787F9228D6C
:102B700041F27076E36A678E656AD01AB7422844DC
:102B800094BFC11B811B002901DB6285F8BD5D1B61
:102B900002D500206085F9E7B5F5803F03D340F208
:102BA000BA30FFF76BF900206585EFE738B50546C9
:102BB0000C4607F09DFE1DB32B7D012B03D140F287
:102BC000D630FFF75BF92A8D42F6E063111989B21E
:102BD000994213D88A4288BF194628462985FFF7AB
:102BE000BFFF40F6B73398420AD96B8B284643F0B3
:102BF00002036B83BDE8384002F076BE1946ECE76D
:102C000038BD000010B5044648B1406808B1FFF770
:102C100019FC21460320BDE8104008F051BA10BD50
:102C200010B500B910BD0468FFF7ECFF2046F8E7C7
:102C300038B5044618B940F28660FFF71FF9032043
:102C400008F032FA054660B12346024604F110014D
:102C500053F8040B8B4242F8040BF9D16868FFF774
:102C600029FD284638BD000038B504460D4607F05A
:102C70003FFE04B1256138BD38B504460D4607F066
:102C800037FE44B1237D012B03D14FF4FD60FFF7E4
:102C9000F5F8C4F8845038BD38B504460D4607F041
:102CA00027FE44B1237D012B03D140F2FC70FFF7D6
:102CB000E5F8C4F8805038BD38B504460D4607F035
:102CC00017FE44B1237D012B03D140F61600FFF718
:102CD000D5F8C4F8905038BD38B504460D4607F015
:102CE00007FE1CB1237D012B08BFA56138BD000084
:102CF00070B504460E46154607F0FAFD4CB1237D2B
:102D0000012B03D140F64800FFF7B8F8C4F88C60F7
:102D1000657770BD08B518B940F6B900FFF7AEF891
:102D2000034B044A186812681044186008BD00BFBD
:102D300050230020B826002038B504460D461AB9A5
:102D400040F6CF00FFF79AF84DB1AB8E3BB1282B80
:102D50008ABF283B00239BB29C4228BF1C462046CA
:102D600038BD000010B50446406F18B1FFF758FF9A
:102D70000023636710BD000010B50446F8B1037D61
:102D8000012B1CD90A2B1AD0FFF7E8FDA06F18B150
:102D9000FFF758FB0023A367636F13B12046FFF7CB
:102DA000E1FF4FF6FF73E06E2386FFF739FF206FD8
:102DB000FFF736FF0023C4E91B33A4F8683010BDC9
:102DC00038B505460C4619B940F68D00FFF756F8A0
:102DD0001DB940F68E00FFF751F82B68A34219D1B8
:102DE000E3682B6000232046E360FFF7C5FF237DE7
:102DF0000A2B17D1E36E3BBB236F1BB140F69E003D
:102E0000FFF73CF8636FDBB14FF40A60FFF736F869
:102E100016E01346002BE5D0DA68A242F9D1E26849
:102E2000DA60DFE7012B0BD0638BDA07E2D543F0E2
:102E300002032046638302F057FD237D012BD9D185
:102E400000232375E38238BD40F69D00FFF716F896
:102E5000D2E700002DE9FF4704460E4607F048FD83
:102E6000002C5FD0237D012B03D14FF41070FFF7AE
:102E700005F8237D0A2B09D121462C48FFF7A0FF36
:102E8000204604B0BDE8F047FFF73CBDD4F85090B1
:102E9000D4F824A0D4F89070D4F81080E58A9BB9B7
:102EA0003DB1234A1368A34206D1E36813600025AD
:102EB000E5602E460FE01346002BF8D0DA68A242F8
:102EC000F9D1E268DA60F2E721461A48FFF778FFA5
:102ED000194B01221A70206F08B1FFF7A1FEE06EB6
:102EE00008B1FFF79DFE606F08B1FFF799FE20461D
:102EF000FFF734FD56B1238B524649462046CDE9B3
:102F00000153231D0093234602F088FC2046FFF75F
:102F1000F9FC3FB16FF00C0140463B4604B0BDE800
:102F2000F047184704B0BDE8F08700BFC026002076
:102F3000B0260020A8260020AC2600200121FFF7A3
:102F400089BF000010B50C4619B94FF44470FEF764
:102F500095FF2046FFF7F2FF6FF00C0010BD000058
:102F6000F8B50C46054618B940F60A10FEF786FF7C
:102F70004FF6A96604B9F8BD23682A68E76893424A
:102F800005D19BB2B34202D02046FFF7D7FF3C46A3
:102F9000F0E7000038B50D46044680B1036873B110
:102FA0000B4B1968FFF7DCFF0A4B20461968FFF747
:102FB000D7FF25B12B6813B1074B1B6803B938BD88
:102FC00019682268914204BF2A681A60DB68F5E735
:102FD000A8260020B0260020B42600200C4B00229A
:102FE00030B4196804460B4B10461D6819B968B116
:102FF00030BCFFF72FBF0B7DA34205D10B6AEB1A44
:10300000934224BF1A460846C968EFE730BC7047B0
:10301000A8260020B8260020F8B5044607F068FC72
:10302000012008F041F80346002836D13F4E3068B1
:10303000002857D13E4B01463E4D1B682F68002BA0
:103040005BD108B1FFF77AFF012008F02DF80346A5
:1030500018BB0920FFF7C2FF012008F025F803463E
:10306000D8B90820FFF7BAFF012008F01DF8034681
:1030700098B9220649D45CB1214601393268002052
:103080002E68C9B2002A42D113B11846FFF756FF85
:10309000012008F009F8034610B39C2218460021CD
:1030A000FEF724FC42F6E06203464475A0F8642073
:1030B000214A8262FF22C2720622A0F84020C28703
:1030C0001E4A02631B4A126802621D4A1278827706
:1030D0001C4A82641C4AC0F884201C4AC0F8942010
:1030E0001846F8BD438BC568190704D523F00803BB
:1030F0004383FFF751FC28469AE71A6ABA1A8A42B4
:1031000024BF18461146DB6899E77F21B5E7577D54
:103110008F4204D307D1156A751B854203D3106A09
:1031200039461346301AD268ACE700BFA826002003
:10313000C0260020B8260020E02EE02EFFFF180257
:10314000BD2600200100E02EC532000800DD6D0024
:103150004020FFF761BF000030B50D4685B0044642
:1031600018B94FF4AF70FEF789FE237D002D3DD0D6
:10317000042B01D0072B39D1A26F22B9218D42F641
:10318000E062914232D0638BDB0603D44FF4B2701D
:10319000FEF774FE238B20460293E38A0193231DDE
:1031A00000932346626A216D02F038FB2046FFF748
:1031B000E3FD334A1368A34210D1E3681360002390
:1031C0000122E3602F4B1A702F4B1B68A3421DD1C5
:1031D00001F072FD002005B030BD1346002BEED08B
:1031E000DA68A242F9D1E268DA60E8E7012B1AD086
:1031F000022B36D0002B3CD1E38A3BB1234A136823
:10320000A34208D1E36813600023E3602046FFF780
:1032100079FBDFE71346002BF6D0DA68A242F9D13A
:10322000E268DA60F0E71A49002051F823201268BA
:103230008AB90133042BF8D121461648FFF7C0FDA7
:10324000237D012B02D1DF20FEF718FE214602204C
:1032500007F036FFBEE7D56FAC4208BFD067D26833
:10326000E6E721460648FFF7ABFD064B01221A7040
:10327000CCE7204605B0BDE83040FFF78DBB00BF6E
:10328000A8260020AC260020EC260020B026002036
:10329000400A0108B426002010B5044607F028FBB8
:1032A00064B1237D20460121012B1EBF638B43F0B7
:1032B00010036383BDE81040FFF74EBF6FF00F00AF
:1032C00010BD000010B50846144669B13AB1118925
:1032D000FFF76CFC2046FFF7B5F8002010BD33B9AE
:1032E000BDE81040FFF7D8BF6FF00F00F6E71046BB
:1032F000F4E70000F8B5044680B3866F0023D0F8E9
:103300008450777B8367E5B1014632460069A84760
:103310000546E8B9BB0612D5238D42F6E062D4F823
:10332000846093421CBF0133238546B100232146AC
:1033300020691A46B0470D3001D16FF00C052846C0
:10334000F8BD01462B4632462846FFF7BBFFDFE7B4
:103350000D35F2D06FF00405A667F0E76FF00F05AA
:10336000EDE700002DE9F8431B4D1C4F2B781C4E58
:1033700001332B703C684FF000080CB9BDE8F883AE
:103380002B78A27F9A4224D0A377638BD90709D5E3
:1033900043F002032046638302F0A6FA638B23F016
:1033A00003036383638B1A0705D523F008032046C4
:1033B0006383FFF7F1FAA36FD4F80C903BB120467A
:1033C00086F80080FFF796FF3378002BD2D14C4669
:1033D000D3E7D4F80C90FAE7BD260020A8260020F9
:1033E000AC26002070B505460E46144607F080FA5C
:1033F0001DB32B7D012B19D096B16B8B43F01003BD
:103400006B832CB101212846BDE87040FFF7A4BEB4
:10341000A86F08B9002070BDFFF714F8AC67F9E792
:10342000002CF7D0042B04D8022B04D86FF00A002C
:10343000F1E7072BFAD10021E5E76FF00F00EAE78B
:103440002DE9F04FBD4D87B0DFF804932B68BC4FDA
:103450000133DFF800832B6099F80030013389F8DD
:103460000030D7F800B00026BBF1000F07D1B54EF1
:103470003468002C40F0BC8107B0BDE8F08F9BF8A9
:1034800014201AB940F2C240FEF7F8FC9BF8142051
:10349000012A03D140F2C340FEF7F0FC9BF8142050
:1034A0000A2A03D140F2C440FEF7E8FC99F8002054
:1034B0009BF81E10914204D1DBF80C405E46A346F7
:1034C000D2E79BF814108BF81E2002299BF84220AB
:1034D00040F09880032A40F297804FF0010A9BF851
:1034E00014C0BCF1060F0DD1BBF81A20D30609D5C4
:1034F0002A68DBF82010521A282A84BF0AF1010A30
:103500005FFA8AFA9BF8094014F008041CD0BCF159
:10351000040F03D0BCF1070F40F03081DBF820200E
:103520004FF4FA742868801ADBF8942002F52421FD
:1035300001F6B841B1FBF4F1884240F20D810AF185
:10354000010A01245FFA8AFADBF874206AB12A685A
:10355000DBF82010511ABBF9402002EB4202B1EB1C
:10356000420F02D35846FFF7FDFB9BF81420032AB5
:1035700040F006812A68DBF82010521A282A03D866
:10358000BAF1000F00F00F815846DBF890A0FFF76A
:10359000F3FB3A68002E00F0FC805A4503D140F25C
:1035A0007150FEF76BFCDBF80C20F26084B1BBF8C5
:1035B00018205B4658460292BBF8162001920BF188
:1035C00004020092DBF82420DBF8501002F026F908
:1035D000DBF810205846DBF80C400592FFF792F913
:1035E000002388F80030BAF1000F09D0059A6FF077
:1035F0000C011046D04798F80030002B7FF431AF13
:10360000B3465BE70B2A66E79BF899A0BAF1000F77
:1036100042D0DBF870201AB14FF49B60FEF72EFC0D
:10362000DBF86C201AB940F2D940FEF727FC9BF872
:103630009A200B2A3FF651AF9BF89910424A0A4450
:1036400012F8011C9BF898208A420BD3BBF860103B
:1036500089B1584601F0FAFE90B9584602F044F993
:1036600030B10DE00132D2B28A428BF89820EDD20F
:103670004FF0000A33E7584602F018FB0028F7D154
:103680009BF899204FF0000A062A8BF898A0EFD8F3
:1036900001328BF8992022E7BBF8302047F6FE7103
:1036A0008A429CBF0132ABF83020BBF94020BBF905
:1036B00030109142DCDB584602F016F838B1DBF8E6
:1036C0007020002AD4D1DBF86C20002AD0D09BF8DF
:1036D0001420022A14D0BBF93C10BBF93E201B4B2E
:1036E00002EBE1029BF842100C2928BF0C21595C27
:1036F0008A4047F6FF718A42A8BF0A46ABF84020CD
:10370000BBF860100024BBF84820BBF832C09142DF
:10371000ABF83040ABF848C028BF11464FEA4C0226
:10372000ABF86A4092B24808B2EB510F98BF02461C
:103730005846ABF84A2002F073FAD0E6B8260020CB
:10374000A8260020C0260020500A0108300A0108DF
:10375000BD260020AC2600209BF89B103C4B03FBB1
:103760000122B2FBF4F2904208D9584602F07EFAE8
:1037700020B99BF89B2001328BF89B200024E3E6C4
:10378000092A7FF4FDAE2A68DBF82010521AF02ACD
:10379000F5E65A4503D040F27550FEF76FFBDBF8B3
:1037A0000C203A6002E79BF81C209BF81D100132A8
:1037B000DBF80C40D2B291428BF81C203FF67EAE73
:1037C000DBF88C208BF81CA088F800A01AB95846AA
:1037D00002F08AF872E65946DBF81000904798F834
:1037E0000020002A7FF43DAE00287FF467AEEEE7AC
:1037F000227D0A2A03D040F2A550FEF73FFB2A683B
:10380000216A521AF02A0FD92046FFF7B5FABBF108
:10381000000F0CD13268A24203D040F2B750FEF73D
:103820002DFBE26832600CE0A346E46821E63268D2
:10383000A24203D140F2B350FEF720FBE268CBF87E
:103840000C20E7682046FFF75DF83C4611E600BF14
:10385000F824010008B5FFF785FD064A1378013307
:10386000DBB21370DB0703D5BDE80840FFF7E8BD06
:1038700008BD00BFBC260020094A1388591C1180CE
:10388000084A12681AB1084909888B4204D2074ACB
:1038900012681344187D70475B1ADBB2D05C704726
:1038A000F0260020FC260020F8260020F426002028
:1038B000F8B50C46054618B940F22C40FEF7DEFA82
:1038C000EB689889FEF748FBC20714D4174EE768E7
:1038D00030682B897968228903440A449A1A002A9D
:1038E0000FDACB1A002B0ADA091A686889B2298123
:1038F000FEF780FE03E020460024FFF791F92C60DC
:10390000F8BDB889FEF728FBC30707D5EB6801208F
:103910009F89FEF721FBEB68384398812768204692
:10392000FFF770F93C46002FD1D1E8E7E8260020E8
:10393000F8B5064618B940F28370FEF79FFA194BA6
:103940001F8867B1184D00232B802B88BB4206D2FD
:10395000FFF792FF0128F8D0022801D0C8B9F8BDBE
:10396000FFF78AFF0428FAD12B880133BB42F6DA2D
:10397000FFF782FF0402FFF77FFFA4B244EA0003CF
:103980009BB25A1EB2F5806F28BF4FF480637386D6
:10399000DBE7FFF771FF0128E1D92B88023B1844D0
:1039A0002880D2E700270020F026002010B504462A
:1039B00018B940F25A20FEF761FA0C4B187810F053
:1039C000100011D0638BDB0606D4D4F890301BB105
:1039D0006FF00E012069984721460548FFF7F0F97E
:1039E0002046FEF78FFF012010BD00BFE426002017
:1039F000A82600202DE9F84F064617460C46DFF8AA
:103A00009490DFF89480CCB3E368D9F800505868FC
:103A1000FEF7A6FAE368B4F808B082469889FEF784
:103A20009BFAA5EB0B0310F00300A3EB0A0518BFEC
:103A300001202D1A002D22DBD4E900A0FEF732FE72
:103A4000B6F866300546834203D240F26440FEF782
:103A500015FAB6F86600B8F80020451B2046A6F80F
:103A6000665023891344A8F80030FFF7CBF8B6F866
:103A7000663063B1BAF1000F09D11FB100242046AE
:103A8000BDE8F88F40F26E40FEF7F8F9F6E75446CD
:103A9000B9E700BFC4260020DC2600202DE9F0474E
:103AA000044618B940F28740FEF7E8F9237D032B5E
:103AB00003D84FF49160FEF7E1F92F4B2F4E1B789E
:103AC0002F4F13F0100F00F08D8032682D4DB4F899
:103AD00060102B68D4E9150EA0EB020CBCF1000FAE
:103AE0000CDB904203D1AEEB0300002806DB9E45C1
:103AF00013D125480068C08988420ED92248B4F8FD
:103B000062800068C0891FFA80FCA4F86000E0456C
:103B1000C4E9152338BFA4F86200626CD01A0028EB
:103B2000C0F25781388890BBB4F860C07144A06D72
:103B3000604488422BD1B4F93010002927DB9A4227
:103B400025D194F84330FF2B1CBF013384F8433058
:103B500094F84330032B19D9B4F848204FF6FF717D
:103B6000638E13449BB29A4288BF0B46A4F8483038
:103B7000204601F029FE0AE0C8260020E8260020A1
:103B800002270020C4260020F4260020F0D0616B1C
:103B900041B3A36B2A689B1A002B23DAAE4B89B280
:103BA000B3F800C0B4F93C30ACEB0102C3F3CF0072
:103BB000121A15B213FA82F2B4F93E30002D12B285
:103BC000A3EBA303B8BFA1EB0C01A287BCBF0918EC
:103BD0000DB22B449BB2E38703EBE203A4F8403021
:103BE0000023636338883368626A002800F0218309
:103BF000217D062900F21D83D51A012D00F1848153
:103C0000591E0144891A0029C0F27E81DFF84C92C6
:103C1000D9F80480B8F1000F03D140F29A50FEF7B2
:103C20002DF94FF6FE739D4203D940F29B50FEF7EB
:103C300025F9D9F80430ADB21B89AB4203D240F26A
:103C40009D50FEF71BF9B9F8083000215B1BA9F85D
:103C50000830D9F804301B895B1B9BB2B8F80A20E6
:103C6000AA42C0F0488129464046FEF7C9FB636A74
:103C7000D9F80C20336053603368626A991A0029BE
:103C8000C0F20F826FEA030C208D02EB0C01C842D8
:103C900000F10782934240F0FE81704DEB68B5F869
:103CA00008809889FEF758F910F00300238D18BF9B
:103CB0000120404480B2834238803ED2EB6898892C
:103CC000FEF74AF9C20710D5EB68B3F80C804046FE
:103CD00028F47C58FEF740F900F03E00FEF73CF96E
:103CE000EB6848EA0008A3F80C80238D2B81EB6871
:103CF0009889FEF731F98307686842BF2B8903F181
:103D0000FF332B812989FEF775FCEB68B5F8088035
:103D10009889FEF721F910F00300336818BF0120DD
:103D2000626A404480B238801844238D134498421C
:103D300003D040F2D150FEF7A1F8636F002B00F0E2
:103D4000F280EB689889FEF707F9C00700F1E88078
:103D5000D4F8748030683B880344B8F1000F35D044
:103D6000D8F80CC0B8F80810DCF804201144591A2F
:103D7000002980F20081D31A002B27DAEB68121A8F
:103D80002A819889FEF7E8F88307686842BF2B8983
:103D900003F1FF332B812989FEF72CFCEB68B5F882
:103DA00008909889FEF7D8F810F00300336818BF20
:103DB0000120484480B238801844D8F80C305B6841
:103DC000984203D040F20260FEF758F8C4F87480BD
:103DD000A9E0D143D94200F18A80216DC91A002996
:103DE000C0F28580618B480709D521F00401618309
:103DF000B4F84A10A4F848100021A4F86A10B4F9E5
:103E00003C00E18F636401EBE001A4F84010002165
:103E1000A4F84210217D03292CD99B1AB4F84A102A
:103E2000B4F848209BB291421AD9618B11F4006F0B
:103E3000618E14BF0120022011FB00F189B299426A
:103E400094BF5018D01883B29A4201D94FF6FF732D
:103E5000A4F848300EE000BFB8260020CC26002091
:103E6000B4F86A100B449BB299422CD89A422CD9D0
:103E7000A4F86A302046D4E91B21FFF7BBFDE16EB0
:103E8000024620672046FFF7B5FD226FE066B2FAD2
:103E900082F35B095B4223860023237708B9A4F8E9
:103EA0006800AB49B4F8643009880B44A4F8643066
:103EB000638B19057FF56BAEBAB968B9638B23F4D0
:103EC0000063638363E64FF6FF739B1AA4F86A30BE
:103ED000638E13449BB2B7E7C3685868FEF740F897
:103EE000E36CC01A0028E9DA51E6D368F5E720460A
:103EF00001F0D0FC4BE6AD1AA8F80830A8F80A107B
:103F0000ADB2D8F80080A9E69B1A002BBEBF638B28
:103F100043F002036383AFE603686367FEF772FE54
:103F2000606F0028F8D13A88336813446362238DA8
:103F3000934203D240F20D60FDF7A0FF238D20468F
:103F40003A889B1A2385FEF70BFE6B681A891AB113
:103F5000804A136000236B60EB689889FDF7FCFFD3
:103F6000C50704D57C4A137843F020031370794FBA
:103F7000DFF8E48179E0BCF80C00FDF7EDFFC10744
:103F80001BD5EB689889FDF7E7FF820715D4EB682E
:103F90000120B3F80C90FDF7DFFFEB6849EA000061
:103FA000B5F808909881EB689889FDF7D5FF10F077
:103FB000030018BF012048443880D8F800904046DC
:103FC000FEF720FEC846C5E633609089B5F8089034
:103FD000FDF7C2FF636A10F00300994418BF012087
:103FE0004844B4F828906062EB68B5F808A0988956
:103FF000FDF7B2FF10F0030018BF012050448145C7
:1040000003D240F23160FDF739FFEB68B5F8089054
:104010009889FDF7A1FF10F00300238D18BF012040
:104020004844181A20852046FEF79AFD69680B89D6
:104030002BB1386840B3FEF751FB00236B60EB688F
:104040009889FDF789FFC0070AD598F8003043F03A
:10405000200388F80030237D042B04BF0723237539
:104060002B6828466367FEF7CDFD656F25B1EA68CA
:10407000616A53688B42A7D0638BD90706D523F0BA
:10408000010343F0020303E03960D6E743F0010384
:104090006383BDE8F087656F45B93048FEF7C8FD1A
:1040A00060672046BDE8F04701F0F4BB4FF0000820
:1040B00003F1FF3EE8684268934215D127482B89F7
:1040C00002899A42EDD9FEF7B3FD0028E9D0B8F194
:1040D000000F07D0C8F800002946FFF7E9FBE0E72A
:1040E0000D46E7E76067F7E7B8F1000F09D1991AC5
:1040F000002935DA1948FEF79BFD0028D1D060670A
:10410000EAE7D8F80C104968AEEB0101002927DB7B
:1041100012EB0C0F24D41148FEF78AFD0746002845
:10412000BFD0D8F80C3031685A68B8F8083013445A
:10413000CB1A002B07DA891AD8F8040089B2A8F83C
:104140000810FEF757FA29463846C8F80070C4E749
:10415000DC260020E0260020E4260020CC260020DB
:104160002968A8460029BBD1D31A002B99DA808987
:10417000FDF7F2FEC20794D43348FEF759FD2860DC
:1041800000288ED0EB6831685A682B891344CB1A0B
:10419000002B05DA891A686889B22981FEF72AFAA4
:1041A0003B8832681A44636A9B1A228DD3427FF59A
:1041B00078AF2B68DB689889FDF7CEFEC30712D570
:1041C0002B68DB68B3F80C80404628F47C58FDF778
:1041D000C3FE00F03E00FDF7BFFE2B6848EA000872
:1041E000DB68A3F80C803168238D2A685B1A616A4A
:1041F0000B4413812B6819895868FEF7FBF92B686B
:104200001D89DB689889FDF7A7FE10F0030033686D
:1042100018BF0120626A284480B238801844238D78
:10422000134498423FF43DAF40F2FE60FDF726FE96
:1042300037E7991A002905DBDB431344228DD3426B
:104240007FF527AF638B1CE7CC2600202DE9F04FCC
:10425000054687B006F04CFB15B98320FDF70EFE2E
:104260006B68A34E33606B89132B40F2B180DFF88B
:10427000A482D8F80010D8F8140004F00DFC00282F
:1042800040F0A680D8F8143003F0F003E02B00F0E3
:104290009F8008F1140306212846009308F11003BB
:1042A0002A8906F009FE0446002840F09180336810
:1042B0009889FDF751FE810A01F0FC01132940F2B3
:1042C00087802B898AB28B42C0F08280A2F11403CE
:1042D0006889DFF844929BB2864F9042DFF83CA297
:1042E000A9F800303C603BD32846AAF80030FEF71E
:1042F00087F83468DFF828B22088FDF72DFE20808B
:1043000034687D4F6088FDF727FE60803468DFF8F1
:1043100014A26068FDF724FE60603468CBF80000EA
:10432000A068FDF71DFEA06034683860E089FDF7E5
:1043300013FE3368E0819889FDF70EFE00F03F031D
:104340002A898AF8003083073CD16C4B1A806C4B69
:104350004FF000091C68002C40D16A4B1C683EE1FC
:104360002B6813B9C220FDF789FD14212846FEF7FA
:1043700047F86C89B9F8009028462146AAF8004011
:10438000FEF73EF8A9EB040A28681FFA8AFA438967
:1043900053451DD3436851463B60FEF731F82B89E6
:1043A0001C446B89A4EB09042C8113B1DF20FDF7B9
:1043B00065FD2B682A891B899A429AD0E020FDF777
:1043C0005DFD96E7531C4D499BB29A420B80BED9C6
:1043D000284607B0BDE8F04FFEF734B8237D13B987
:1043E000FB20FDF74BFD237D0A2B02D1FC20FDF7BE
:1043F00045FD237D012B02D1FD20FDF73FFD227AF3
:104400003AB1D8F8043093F840300133DBB29A4225
:104410006AD13368218B1A88914265D1E28A5B8820
:104420009A4261D16268D8F810309A425CD1226811
:10443000D8F814309A4257D1E368A34240F02D8453
:1044400040F20D10FDF71AFDB9F1000F06D0E36838
:10445000C9F80C302A4B1A681C60E260E368A3427A
:1044600003D140F21510FDF709FD274900232A89E1
:10447000DFF8B4900A813268DFF8B080CA60234A5E
:104480000B60C9F8003088F8003013809AF80030CB
:104490004D601B0703D56B7B43F001036B73A36F68
:1044A000002B00F055812046FEF724FF0D3008D088
:1044B000A36F002B00F04C81104B1B88002B00F0E9
:1044C0004781638D13B9204601F0E4F90E4D0024B5
:1044D0000F4B68681C60C9F8004010B1FDF7B2FFCF
:1044E0006C6007B0BDE8F08FA146E46833E700BF19
:1044F000F4260020FC260020C426002002270020ED
:10450000A8260020C0260020CC260020DC26002083
:10451000EC260020942F002000270020F826002001
:10452000E8260020C8260020E0260020E4260020FF
:10453000237D0A2B03D040F21F10FDF79FFC227A47
:104540003AB1D8F8043093F840300133DBB29A42E4
:1045500044D13368208B1A8890423FD15B88E18A2E
:1045600099423BD16268D8F810309A4236D122681D
:10457000D8F814309A4231D19AF800305E073FF5EE
:1045800027AFA94A16889A0718D5DBF80020636A76
:10459000A2EB030CBCF1000F15DBB4F828C09B1A8A
:1045A0001CEB030F0FD4A14B324400930433CDE92D
:1045B00001102046396801F031F909E7DF0742BFF1
:1045C0009B4B1B682362002E3FF402AF638B204697
:1045D00043F00203638301F087F9F9E6E468002CF5
:1045E000A6D1944BD8F804001A683168D8F814E0C2
:1045F0009146B9F1000F16D18889FDF7ADFC42074D
:104600003FF5E6AE3368884A1888118802905B88C7
:10461000DBF800200193854B0A440093043339688A
:10462000D8F8040035E399F808C0BCF1000F05D0B4
:1046300090F840300133DBB29C450CD1B9F816C07C
:104640004B889C4507D1D9F80030734500F00283B0
:10465000002B00F0FF824C46D9F80C90C9E7980770
:104660007FF5B6AE99F81D2099F81C309A42BFF438
:10467000AFAE99F81500FEF7CFFC074658B9D9F848
:104680001830002B3FF4A4AE01464FF0FF32D9F8AA
:10469000100098479CE699F81D30013389F81D30C9
:1046A000438B43F400734383D8F814300360D8F885
:1046B00010304360B9F81630C38233681B88038317
:1046C00003230375DBF8003001334362C362FEF756
:1046D00021FBDBF80030B865013B38657864F8658C
:1046E0007B65D9F81030C7F87C903B6199F80930A8
:1046F00003F00C037B7299F808303B724E4B1A683A
:104700001F60FA6001F086FB4C4B012238461A709C
:10471000FFF70EF933683A1D7E8EDB89104605924D
:10472000A7F86030A7F8623003F0C2FF059A01468F
:104730003046FEF701FB12217886384600F03AFF3A
:1047400020B121463846FEF785FB41E6384642E770
:104750009AF800203A4B51071C6039D5217D022977
:1047600021D1226D3B689A4209D198F8003043F07C
:10477000080388F80030638B23F00103638398F803
:104780000030180740F1F381D4F890301BB16FF07E
:104790000D012069984721462748FEF711FB204666
:1047A000FEF7B0F892E6636ADBF80020934208D087
:1047B000D11A0029E3DB9B1A228DD342DFD4638B0D
:1047C0000DE00029D1D140F23B30FDF757FBCCE79B
:1047D0009207638B06D5227D023A012A02D943F063
:1047E0000203CBE7DD0620465EBF114B1B68236248
:1047F0000023A4F89A30FFF79BF89AF8003013F0E2
:10480000020103D0227D023A012AB8D8227D023A61
:10481000072AB4D8DFE812F016009F000D0111013D
:104820005A010D017401930102270020A42F0020DA
:10483000B8260020B4260020A8260020AC260020A0
:10484000EC26002003F01202122A65D1626C39684E
:1048500001328A4260D1DBF800306264591C326850
:10486000013B658E6162E162D28963650423A4F82D
:104870006020A4F86220E21823751046059203F028
:1048800017FF059A01462846FEF756FA41F21C1317
:104890004200608681009A42154638BF1D46B5EB3E
:1048A000800F2DD98BB2A4F84830B4F866301BB90C
:1048B00040F27730FDF7E2FAB4F86630256F013B3D
:1048C000A4F8663005BBE56E1DB940F27F30FDF7F8
:1048D000D5FA2B68E3662846FEF794F9236FB3B93F
:1048E0004FF6FF732386D4F88830002B3FF467AF70
:1048F00000222146206998470D307FF460AFE5E53E
:104900009A4288BF93B2CEE72B682367E3E7002380
:10491000238684F84230E6E7D8067FF530AF336867
:10492000A44A18881188029020465B88DBF8002092
:104930000193A14B0A4400930433396800F06EFFE1
:1049400094F84230032B3FF61AAF0023204623860B
:1049500001F07AF913E751B1636ADBF80020013BFB
:1049600093427FF40CAF204600F0F8FE07E7D9062B
:104970007FF505AF636C3968DB43CB4248D4236DC8
:104980005B1A002B44DB04232375E36F1BB920461D
:10499000FEF7D4FA9AE59B691BB94FF46E70FDF7E8
:1049A0006DFA2046FDF7DAFFE36F9B69002BEED02E
:1049B000002221462069984718B10D303FF486AD9A
:1049C000E5E72046FFF76AF87C4A13880BB1013B04
:1049D0001380618E41F21C134A0088009A421546EA
:1049E00038BF1D46B5EB810F0ED983B2A4F848300D
:1049F00098F800309A067FF5C2AE638B43F002034D
:104A0000638307232375BAE69A4288BF93B2EDE722
:104A10003368684A1D88108802955B88DBF800209F
:104A20000193654B024420460093043300F0F6FEE8
:104A3000A5E62046FFF732F8DAE72046FFF72EF822
:104A400098F8003013F0200F9AF8003030D013F0AF
:104A5000100F638B27D0216D3A68914223D1E26E0B
:104A60000ABB43F0020320466383FEF785F9544AEC
:104A700013689C4209D1E368136008E0DA68944245
:104A800002D1E268DA6002E01346002BF6D14D4B0A
:104A900001221A700A2323754B4B1A681C60E260CE
:104AA00001F0B8F96BE643F0020363830823A9E73A
:104AB000DB067FF564AE226D3B689A427FF45FAE01
:104AC000E36E002B7FF45BAE06239BE72046FEF7E8
:104AD000E5FF98F800309F067FF551AE638B2046C6
:104AE00043F002036383FEF747F9354A13689C429B
:104AF000C1D0002BCBD0DA689442C2D01346F8E77D
:104B00002046FEF7CBFF9AF80030DE067FF537AE81
:104B1000226D3B689A427FF432AEE36E002B7FF445
:104B20002EAE2046FEF728F9254A13689C42A2D0F3
:104B3000002BACD0DA689442A3D01346F8E72046A5
:104B4000FEF7ACFF9AF80030DD067FF518AE226D57
:104B50003B689A427FF413AEE36E002B7FF40FAEF6
:104B600098F8003043F0100388F8003007E6134B44
:104B70001A882AB1D4F8803043BB00230F4A13802F
:104B80002046FEF713FF00287FF4A0ACD9F80030D0
:104B900083B3A36F1BB14FF4F370FDF76FF9638B11
:104BA000D9F8002013F0100316D01046FDF74AFC88
:104BB000EDE600BF02270020A42F0020DC26002005
:104BC000A8260020AC260020C0260020214620690F
:104BD00098470D30D1D179E4D4F884500DB32146F3
:104BE0002069A84710F10D0F3FF470AC10B1D9F84F
:104BF0000030A36798F80030990605D5A36FB3B1CC
:104C00005A7B42F020025A73274B002220461A603A
:104C1000FEF7CCFE00287FF459AC204600F064FE7D
:104C200054E42B4621462846FEF74CFBDAE7238D59
:104C300042F6E062D4F8845093421CBF01332385CE
:104C4000002DE1D00023214620691A46A8470D30E7
:104C5000DAD13BE43CB1D9F80C30E360134BC9F82E
:104C60000C20C3F800909AF800305C073FF5B0AB19
:104C700013F010043FF4F3AC0D4BDBF800201C885C
:104C80000B88224402934B8801930A4B0093043310
:104C9000396800F0DFFDFFF79BBBB9F1000F7FF42F
:104CA000D6ABFFF7E2BB00BFEC260020B426002005
:104CB00002270020A42F0020024A137843F010039B
:104CC00013707047E426002010B5044618B940F26E
:104CD0009E50FDF7D3F86368987B013818BF012018
:104CE00010BD00002DE9F843089D80460C4617468C
:104CF0001E469DF8289015B9EC20FDF7BFF8BC4280
:104D00002BD29DF824309A0709D46B8B5B0624D4F0
:104D1000B9F1000F03D0EB6E0BB92B6FEBB104F2BE
:104D2000034525F00301B9420A4628BF3A4691B22D
:104D30004FF420724046FDF7CFFB054650B10368A3
:104D40001BB14FF48770FDF799F86B891B1B3380FB
:104D50002C816C812846BDE8F8832146E8E70000F5
:104D60002DE9F0470E46904699469DF820A007464B
:104D700010B9A620FDF782F816B9A720FDF77EF836
:104D80004FEA8A05032006F08FF9044605F0040572
:104D900028B93046FDF756FB2046BDE8F0870023D2
:104DA00080F80AA01FFA85FAC0E900363389AB42C1
:104DB00002D2B320FDF762F8338930461421A3EB09
:104DC0000A032381FDF718FB064620B12046002484
:104DD000FDF718FFE0E76368AD02D3F804A005F51E
:104DE000A045C4F80CA0F88AFDF7B6F8AAF80000B0
:104DF000D4F80CA0388BFDF7AFF8AAF80200E768EA
:104E00004846FDF7ADF8786045EA0800E768FDF729
:104E1000A3F8B881E3689E74DE74BDE72DE9F04322
:104E200085B004460D461646DDF830801F46B8F1C1
:104E3000000F03D140F2A170FDF720F8D5F80490DF
:104E400033462A8906212846009706F035F8A9F846
:104E500010009CB1E37AA47A062231462846CDF8A8
:104E60000880CDE900423A4603F0F2FD04462846A8
:104E7000FDF7E8FA204605B0BDE8F083FF23EBE735
:104E800014312DE9F04189B20646174624204FF42B
:104E900020729846FDF720FB054630B34389132B5B
:104EA00003D840F22770FCF7E9FF6C684046FDF735
:104EB00053F82080BDF81800FDF74EF86760608059
:104EC0003046FDF74DF8A0609DF81C0040F4A0406E
:104ED000FDF742F8A081BDF82000FDF73DF8002362
:104EE000E08123746374A374E3742846BDE8F08101
:104EF00010B5044686B038B940F24670CDE90412C8
:104F0000FCF7BCFFDDE90412638D029310230193CB
:104F1000238B0093E38A606AFFF7B2FF18B1628DBA
:104F2000636A1344E36206B010BD000018B940F292
:104F30005A70FCF7A3BF70477FB505460C461E4666
:104F40001AB940F2C470FCF799FF1EB940F2C5705F
:104F5000FCF794FF2846FDF703F814234EF22E01C8
:104F600002462046CDE90131BDF8243000210093EE
:104F7000BDF82030FFF784FF044608B1FFF7D6FFE5
:104F8000204604B070BD0000F7B5044617461E4623
:104F90000D4619B940F28A70FCF770FF5CB1207AB7
:104FA00048B1FDF733F850B92846FDF74BFA6FF0DA
:104FB000030003B0F0BD304603F07AFBF3E7009046
:104FC00033463A4629462046FFF728FFF1E700001E
:104FD0002DE9F04F2DED028B8FB0914604460893DA
:104FE00000230791ADF8363030B96FF00F000FB0E5
:104FF000BDEC028BBDE8F08FB0F86230428E5B08EA
:10500000934228BF1346002B08BF1346069305F0B2
:105010006FFC079B002BE8D0237D072B03D0023BBE
:10502000022B00F20F82B9F1000F17D0B4F86430F0
:105030004B4506D2638B43F0800363834FF0FF3010
:10504000D5E7B4F866202D2AF4D8236FEAB12BB93E
:10505000E36E1BB94FF4AC70FCF710FFB4F8663088
:10506000D4F86CA00493BAF1000F16D1B4F86860BC
:10507000002E00F07E8140F24D205746D346D046A8
:1050800055465646FCF7FAFE9DE013B9E36E002B39
:10509000E4D040F25B10DFE7DA46DAF800B05746BA
:1050A000BBF1000FF8D19AF80A50BAF80830AD00F9
:1050B000069A05F004052B449A4203DA40F2E910FF
:1050C000FCF7DCFEBAF80820069B9A1A521BB4F8CB
:1050D000685092B2ADF83650002D57D0954205D9A0
:1050E00040F2FB100592FCF7C9FE059ABDF8363078
:1050F0004B451D4628BF4D46954228BF15465B1BB4
:10510000521B9BB292B2ADF8363043B1A94505921D
:1051100000F0348140F20320FCF7B0FE059A4D45C3
:1051200080F02C81002A00F02181B7F80880B8F1C6
:10513000000F00F01C81A9EB0508089B9045A8BF53
:105140009046DB071FFA88F622D50123314600205E
:105150000293089BCDE900430DF13603FFF7C2FD32
:105160000346002800F06B810799324640682944C5
:105170000593FCF789FB059B1846FDF793FA049B02
:105180004FF0000803449BB2049317E0AA46C6E719
:105190007B6819461B68002BFBD10A7B12F0C00FFD
:1051A00019D148894A6807990244914213D1FDB147
:1051B000B0464FF40D700593FCF760FE059B2E443E
:1051C000BA469B46B6B2002305930993089B03F0A9
:1051D00001030A93A7E0012231460020FDF77CF984
:1051E000002800F02C81079A05902A444260C4E709
:1051F000B046E4E7A9EB0603069A9BB2934228BFA8
:1052000013469BB208EE103A0A9B6BB3059B18EE4F
:10521000101A3820B3FA83F35B090293089BCDE997
:1052200000430DF13603FFF75DFD8246002839D0BB
:10523000438918EE102A934203D240F26920FCF70A
:105240001DFE079B18EE102ADAF804009919FCF7E6
:105250001BFB5046FDF726FA049B03449BB22E2B02
:10526000049344D950461BE0BDF836301BB14FF4CF
:105270001D70FCF703FE012218EE101A3820FDF70E
:105280002BF978B1079A00210B90324442604FF419
:1052900020723820FDF720F90B9B824618BB184678
:1052A000FDF7D0F8638B43F080036383BBF1000FFD
:1052B00002D05846FDF7C6F8059B13B11846FDF716
:1052C000AFFCB4F86630002B3FF4B8AE236F002B70
:1052D0007FF4B4AEE36E002B7FF4B0AE40F22A3020
:1052E000FCF7CCFDAAE61946FDF7F8F9B1E7E36D46
:1052F00000225146204633440092FFF731FD82469A
:105300000028CFD0059B7BB3099B1BB940F2AE2090
:10531000FCF7B4FD099BC3F800A018EE103ACDF8D5
:1053200024A01E44B6B24E45FFF464AF5E46DDF8DD
:1053300014B025B17B6823BB3B891D443D81BDF87A
:105340003630A4F8683086B31FB940F2E320FCF78A
:1053500095FD31467868FDF7C1F93B8932891344E0
:105360003B81C7F800B03FE00590D6E790462E4657
:1053700029E7B04635463746B34624E70026B0460F
:10538000D7E71A892A441A811A6862B9B3F80AC0A1
:105390002A465868079960440593FCF775FA059BFF
:1053A0005A892A445A811B68C5E7B8F1000F17D003
:1053B0000FB17B681BB940F2E920FCF75FFD7B6809
:1053C0001A891968424492B21A8139B95A894244F9
:1053D0005A813B899844A7F80880C2E70B46EFE75B
:1053E000002FBED1C4F86CB0E36DB4F864204B4418
:1053F000A2EB0909E365049BA4F86490A4F8663065
:105400003BB1236F2BB9E36E1BB940F21530FCF7AB
:1054100035FDBAF1000F10D0DAF80C0000283FF487
:10542000E6AD089B13F0020407D185890820FCF73C
:1054300093FDDAF80C30284398810020D7E500234B
:1054400005932FE76FF00A00D1E500002DE9F74F33
:105450000D46064618B940F24E30FCF70FFDF46ECB
:1054600014B94FF0FF3006E045B940F25630FCF772
:1054700005FD6FF0050003B0BDE8F08F2389AB4256
:1054800001D80020F7E7738EAB4209D240F25E30BC
:10549000FCF7F4FC23891BB940F25F30FCF7EEFC0B
:1054A00094F80AB04FF42072B4F808A038204FEAFC
:1054B0008B07AAEB050107F004071FFA81F817FA1A
:1054C00081F189B2FDF708F881460028C9D06068EB
:1054D00022890389D9F804109B1A424639442B4487
:1054E0009BB2FDF799F9404560D1E3689889FCF7D4
:1054F00033FD10F00808C7B216BF4FF0080807F0D8
:105500003F0707F03707FB07E36848BF48F001088B
:10551000586848BF07F0FE07FCF722FD42462B18EB
:1055200049463046CDF800B0FFF71AFC8046002807
:1055300097D06068A5EB0A05FDF7B4F8B6F86630B9
:105540001FFA85F9181AA6F866006068018911FA31
:1055500085F189B2FDF74EF8238938469944E3680E
:10556000A4F808909D89FCF7F7FCE368284398812C
:105570006068FDF797F8B6F866301844A6F866003C
:10558000D8F80400FDF78EF8B6F866301844A6F88F
:1055900066002368C8F80030C4F80080D8F800001E
:1055A00000287FF46EAFA6F8680064E74846FCF771
:1055B00049FF56E72DE9F74311F0030804460E466C
:1055C00003D140F21340FCF759FC1CB940F21540DE
:1055D000FCF754FCC6F340074FF4207238204FEA22
:1055E00087094946FCF778FF054640B9638B4FF0C1
:1055F000FF3043F08003638303B0BDE8F083438949
:105600004B4503D240F23D40FCF738FC2946009759
:105610003246E36D2046FFF7A3FB05460028E5D0A0
:10562000C3689A0703D040F24640FCF727FC2B8959
:105630001BB140F24740FCF721FCE36E2BBBE56653
:105640000023A4F86830B8F1000F02D0E36D0133F5
:10565000E365F30742BF638B43F02003638368680D
:10566000FDF720F8B4F86630184480B2A4F866005C
:105670000028C1D0206F30B9E46E002CBCD140F2BC
:105680006940FCF7FBFB0020B6E71A461B68002BBD
:10569000FBD11560D4E70000F8B5044618B940F214
:1056A000EF30FCF7EBFBE56E4DB12F462D68002D7A
:1056B000FBD1FB689889FCF74FFC430705D02046D7
:1056C0000121BDE8F840FFF775BFFB6801209E8906
:1056D000FCF742FCFB68304398812846638B43F01B
:1056E00020036383F8BD00002DE9F041044618B99A
:1056F00040F26760FCF7C2FB256F45B96FF005000B
:10570000BDE8F081FFF7E0FA0028F7D12D682B689B
:105710002846002BF6D1FFF7D7FA06460028EDD130
:10572000E36E2B60236FC4E91B30638B43F400638B
:105730006383EB685868FCF713FCEB680746B5F821
:1057400008809889FCF708FC10F0030347443046B2
:1057500018BF012366633B44E364D1E7F8B5044610
:1057600018B940F2C560FCF789FB256F15B96FF0D9
:105770000500F8BD2846FFF7A7FA0028F7D12B68E7
:1057800004F16C062367336883B933682B60356096
:105790002B680BB9A4F8683094F842300020FF2B36
:1057A00060631CBF013384F84230E2E7DB6858686D
:1057B000FCF7D6FBEB6807465868FCF7D1FB381AB4
:1057C0000028E2DA3668DEE738B5044618B940F258
:1057D000FD60FCF753FB236FFBB1638B5B071CD4AD
:1057E0002046FFF7BBFFC0B9B4F86010B4F84830EA
:1057F0002086994228BF1946638E5D004A10B5EB9A
:10580000510F2B4488BF2A461344A4F84A20A4F819
:105810004830638B43F00403638338BD7FB5BDF824
:1058200024500446BDF82860084611461A46089BD5
:10583000CDE90056CDE90223FFF77EFB014638B1E2
:105840002046DDE9022304B0BDE87040FFF79CBBB1
:1058500004B070BDF0B585B00D4604461146BDF8E4
:105860002C601A46BDF830700A9B88B12846CDE9F5
:105870000067CDE90223FFF75FFB014640B100203E
:105880000A94DDE9022305B0BDE8F040FFF7C6BA8F
:1058900005B0F0BD38B5044618B940F62D00FCF748
:1058A000EDFA206DFCF75CFB002102462046FFF775
:1058B0001FFB054630B9638B6FF0010043F0030313
:1058C000638338BDFFF732FB231D2246294620465D
:1058D000FFF75AFB638B18B143F003036383F0E7D0
:1058E00023F00303FAE700002DE9F04F044687B0E8
:1058F00004F0FEFF1CB940F2E540FCF7BFFA237D3F
:10590000012B03D140F2E740FCF7B8FA874B1B6844
:10591000A34200F06981E56E4DB9638B990740F1B0
:105920005F81204607B0BDE8F04FFFF7B3BF207A94
:1059300004F10409B4F84880B4F8606040B3FCF79F
:1059400065FB0746002800F0678123680BB90368F0
:105950002360EB68B045586828BFB046FCF700FBF1
:105960002B89626C9B1A1844404515D9B4F86030F5
:105970004345D2D1236F002BCFD194F89930002B1F
:10598000CBD14FF4807284F89A30A4F89820C4E701
:10599000484602F08DFED4E70023266F84F8993044
:1059A00026B133463668002EFBD11E46DFF880A1B3
:1059B000DBE0237D022B09D0EB681020B3F80CB09C
:1059C000FCF7CAFAEB684BEA000098812846FFF71B
:1059D0007BF9002875D1D5F80CB0606AFCF7C0FAE5
:1059E000CBF80800D5F80CB0608DFCF7B5FAABF831
:1059F0000E00628D636A1344E362AB7AD5F80CB093
:105A0000DB074FD40BF1140BB4F93030002BBCBFC3
:105A100000232386636B3BB9DAF800306363EB68DD
:105A20005868FCF79DFAA0636A68EB6851685B1AD6
:105A300051899BB2C91A518169680A89D31A0B81AD
:105A40006A68EB68536000221A745A74AB7AEA6889
:105A50009B0003F00403143313449B4503D04FF41D
:105A6000C460FCF70BFA68682346D5F80CB0062131
:105A70000289CDF8009005F01FFA0623ABF810005C
:105A80004A4601932146A37A02970093E37A686815
:105A900002F0DEFFA8B1638B43F08003638307B09D
:105AA000BDE8F08F4A4639464FF480600BF1180B81
:105AB000FDF742F940F00170FCF752FA4BF8040C84
:105AC000A2E72B68E366237D022B1EBF638B23F0C6
:105AD00003036383EB685868FCF742FA2A89EB6892
